{
  "_format": "hh3-artifact-1",
  "contractName": "VaultFactory",
  "sourceName": "contracts/VaultFactory.sol",
  "abi": [
    {
      "inputs": [],
      "stateMutability": "nonpayable",
      "type": "constructor"
    },
    {
      "inputs": [
        {
          "internalType": "address",
          "name": "owner",
          "type": "address"
        }
      ],
      "name": "OwnableInvalidOwner",
      "type": "error"
    },
    {
      "inputs": [
        {
          "internalType": "address",
          "name": "account",
          "type": "address"
        }
      ],
      "name": "OwnableUnauthorizedAccount",
      "type": "error"
    },
    {
      "anonymous": false,
      "inputs": [
        {
          "indexed": true,
          "internalType": "address",
          "name": "previousOwner",
          "type": "address"
        },
        {
          "indexed": true,
          "internalType": "address",
          "name": "newOwner",
          "type": "address"
        }
      ],
      "name": "OwnershipTransferred",
      "type": "event"
    },
    {
      "anonymous": false,
      "inputs": [
        {
          "indexed": true,
          "internalType": "address",
          "name": "user",
          "type": "address"
        },
        {
          "indexed": true,
          "internalType": "address",
          "name": "vault",
          "type": "address"
        },
        {
          "indexed": false,
          "internalType": "uint256",
          "name": "timestamp",
          "type": "uint256"
        }
      ],
      "name": "VaultCreated",
      "type": "event"
    },
    {
      "anonymous": false,
      "inputs": [
        {
          "indexed": true,
          "internalType": "address",
          "name": "user",
          "type": "address"
        },
        {
          "indexed": true,
          "internalType": "address",
          "name": "vault",
          "type": "address"
        }
      ],
      "name": "VaultRemoved",
      "type": "event"
    },
    {
      "inputs": [
        {
          "internalType": "uint256",
          "name": "",
          "type": "uint256"
        }
      ],
      "name": "allVaults",
      "outputs": [
        {
          "internalType": "address",
          "name": "",
          "type": "address"
        }
      ],
      "stateMutability": "view",
      "type": "function"
    },
    {
      "inputs": [],
      "name": "createVault",
      "outputs": [
        {
          "internalType": "address",
          "name": "",
          "type": "address"
        }
      ],
      "stateMutability": "nonpayable",
      "type": "function"
    },
    {
      "inputs": [],
      "name": "getAllVaults",
      "outputs": [
        {
          "internalType": "address[]",
          "name": "",
          "type": "address[]"
        }
      ],
      "stateMutability": "view",
      "type": "function"
    },
    {
      "inputs": [
        {
          "internalType": "address",
          "name": "user",
          "type": "address"
        }
      ],
      "name": "getVault",
      "outputs": [
        {
          "internalType": "address",
          "name": "",
          "type": "address"
        }
      ],
      "stateMutability": "view",
      "type": "function"
    },
    {
      "inputs": [],
      "name": "getVaultCount",
      "outputs": [
        {
          "internalType": "uint256",
          "name": "",
          "type": "uint256"
        }
      ],
      "stateMutability": "view",
      "type": "function"
    },
    {
      "inputs": [
        {
          "internalType": "address",
          "name": "user",
          "type": "address"
        }
      ],
      "name": "hasVault",
      "outputs": [
        {
          "internalType": "bool",
          "name": "",
          "type": "bool"
        }
      ],
      "stateMutability": "view",
      "type": "function"
    },
    {
      "inputs": [],
      "name": "owner",
      "outputs": [
        {
          "internalType": "address",
          "name": "",
          "type": "address"
        }
      ],
      "stateMutability": "view",
      "type": "function"
    },
    {
      "inputs": [
        {
          "internalType": "address",
          "name": "user",
          "type": "address"
        }
      ],
      "name": "removeVault",
      "outputs": [],
      "stateMutability": "nonpayable",
      "type": "function"
    },
    {
      "inputs": [],
      "name": "renounceOwnership",
      "outputs": [],
      "stateMutability": "nonpayable",
      "type": "function"
    },
    {
      "inputs": [
        {
          "internalType": "address",
          "name": "newOwner",
          "type": "address"
        }
      ],
      "name": "transferOwnership",
      "outputs": [],
      "stateMutability": "nonpayable",
      "type": "function"
    },
    {
      "inputs": [
        {
          "internalType": "address",
          "name": "",
          "type": "address"
        }
      ],
      "name": "userVaults",
      "outputs": [
        {
          "internalType": "address",
          "name": "",
          "type": "address"
        }
      ],
      "stateMutability": "view",
      "type": "function"
    }
  ],
  "bytecode": "0x6080604052348015600e575f5ffd5b503380603357604051631e4fbdf760e01b81525f600482015260240160405180910390fd5b603a81603f565b50608e565b5f80546001600160a01b038381166001600160a01b0319831681178455604051919092169283917f8be0079c531659141344cd1fd0a4f28419497f9722a3daafe3b4186f6b6457e09190a35050565b611cee8061009b5f395ff3fe608060405234801561000f575f5ffd5b50600436106100a6575f3560e01c806374d4e4911161006e57806374d4e491146101695780638da5cb5b1461017a5780639094a91e1461018a57806397331bf91461019d578063ceb68c23146101b2578063f2fde38b146101c5575f5ffd5b80630d453efb146100aa5780630eb9af38146100ec5780632958d0311461012f5780635d12928b14610157578063715018a61461015f575b5f5ffd5b6100d76100b8366004610681565b6001600160a01b039081165f9081526001602052604090205416151590565b60405190151581526020015b60405180910390f35b6101176100fa366004610681565b6001600160a01b039081165f908152600160205260409020541690565b6040516001600160a01b0390911681526020016100e3565b61011761013d366004610681565b60016020525f90815260409020546001600160a01b031681565b6101176101d8565b610167610337565b005b6002546040519081526020016100e3565b5f546001600160a01b0316610117565b6101176101983660046106ae565b61034a565b6101a5610372565b6040516100e391906106c5565b6101676101c0366004610681565b6103da565b6101676101d3366004610681565b6105bc565b335f908152600160205260408120546001600160a01b0316156102515760405162461bcd60e51b815260206004820152602660248201527f5661756c74466163746f72793a205573657220616c7265616479206861732061604482015265081d985d5b1d60d21b60648201526084015b60405180910390fd5b5f333060405161026090610674565b6001600160a01b03928316815291166020820152604001604051809103905ff080158015610290573d5f5f3e3d5ffd5b50335f81815260016020818152604080842080546001600160a01b0388166001600160a01b031991821681179092556002805495860181559095527f405787fa12a823e0f2b7631cc41b3ba8828b3321ca811111fa75cd3aa3bb5ace90930180549094168317909355915142815293945084939092917f0b045af6aff86dd2cda5342fd0329a354dc66759ff1eda00d7ecf13a76c7fb3b910160405180910390a392915050565b61033f6105f9565b6103485f610625565b565b60028181548110610359575f80fd5b5f918252602090912001546001600160a01b0316905081565b606061037c6105f9565b60028054806020026020016040519081016040528092919081815260200182805480156103d057602002820191905f5260205f20905b81546001600160a01b031681526001909101906020018083116103b2575b5050505050905090565b6103e26105f9565b6001600160a01b038082165f90815260016020526040902054168061045d5760405162461bcd60e51b815260206004820152602b60248201527f5661756c74466163746f72793a204e6f207661756c742065786973747320666f60448201526a39103a3434b9903ab9b2b960a91b6064820152608401610248565b6001600160a01b0382165f90815260016020526040812080546001600160a01b03191690555b60025481101561057757816001600160a01b0316600282815481106104aa576104aa610710565b5f918252602090912001546001600160a01b03160361056f57600280546104d390600190610724565b815481106104e3576104e3610710565b5f91825260209091200154600280546001600160a01b03909216918390811061050e5761050e610710565b905f5260205f20015f6101000a8154816001600160a01b0302191690836001600160a01b03160217905550600280548061054a5761054a610749565b5f8281526020902081015f1990810180546001600160a01b0319169055019055610577565b600101610483565b50806001600160a01b0316826001600160a01b03167f395da61c7f5ffbcabe770aa45c9f22dd3a6ee925f912cce668d7058ea472bc2c60405160405180910390a35050565b6105c46105f9565b6001600160a01b0381166105ed57604051631e4fbdf760e01b81525f6004820152602401610248565b6105f681610625565b50565b5f546001600160a01b031633146103485760405163118cdaa760e01b8152336004820152602401610248565b5f80546001600160a01b038381166001600160a01b0319831681178455604051919092169283917f8be0079c531659141344cd1fd0a4f28419497f9722a3daafe3b4186f6b6457e09190a35050565b61155b8061075e83390190565b5f60208284031215610691575f5ffd5b81356001600160a01b03811681146106a7575f5ffd5b9392505050565b5f602082840312156106be575f5ffd5b5035919050565b602080825282518282018190525f918401906040840190835b818110156107055783516001600160a01b03168352602093840193909201916001016106de565b509095945050505050565b634e487b7160e01b5f52603260045260245ffd5b8181038181111561074357634e487b7160e01b5f52601160045260245ffd5b92915050565b634e487b7160e01b5f52603160045260245ffdfe60a060405234801561000f575f5ffd5b5060405161155b38038061155b83398101604081905261002e916100e6565b816001600160a01b03811661005c57604051631e4fbdf760e01b81525f600482015260240160405180910390fd5b6100658161007c565b50600180556001600160a01b031660805250610117565b5f80546001600160a01b038381166001600160a01b0319831681178455604051919092169283917f8be0079c531659141344cd1fd0a4f28419497f9722a3daafe3b4186f6b6457e09190a35050565b80516001600160a01b03811681146100e1575f5ffd5b919050565b5f5f604083850312156100f7575f5ffd5b610100836100cb565b915061010e602084016100cb565b90509250929050565b6080516114256101365f395f81816102880152610a4701526114255ff3fe6080604052600436106100fd575f3560e01c8063c45a015511610092578063d3c7c2c711610062578063d3c7c2c7146102fc578063f2fde38b1461031d578063f3fef3a31461033c578063f8b2cb4f1461035b578063fa09e6301461037a575f5ffd5b8063c45a015514610277578063c6255626146102aa578063ce67be26146102c9578063d103d0f8146102dd575f5ffd5b8063715018a6116100cd578063715018a6146101b657806375151b63146101ca5780637f98aa71146102085780638da5cb5b14610247575f5ffd5b80632d2ae1c11461010857806347e7ef241461013d578063523fba7f1461015e5780635fa7b58414610197575f5ffd5b3661010457005b5f5ffd5b348015610113575f5ffd5b50610127610122366004611178565b610399565b60405161013491906111e9565b60405180910390f35b348015610148575f5ffd5b5061015c610157366004611246565b6104a9565b005b348015610169575f5ffd5b5061018961017836600461126e565b60026020525f908152604090205481565b604051908152602001610134565b3480156101a2575f5ffd5b5061015c6101b136600461126e565b6107dd565b3480156101c1575f5ffd5b5061015c610a18565b3480156101d5575f5ffd5b506101f86101e436600461126e565b60046020525f908152604090205460ff1681565b6040519015158152602001610134565b348015610213575f5ffd5b5061021c610a2b565b604080516001600160a01b039586168152949093166020850152918301526060820152608001610134565b348015610252575f5ffd5b505f546001600160a01b03165b6040516001600160a01b039091168152602001610134565b348015610282575f5ffd5b5061025f7f000000000000000000000000000000000000000000000000000000000000000081565b3480156102b5575f5ffd5b5061025f6102c436600461128e565b610a72565b3480156102d4575f5ffd5b50600354610189565b3480156102e8575f5ffd5b5061015c6102f7366004611178565b610a9a565b348015610307575f5ffd5b50610310610c2f565b60405161013491906112a5565b348015610328575f5ffd5b5061015c61033736600461126e565b610c8f565b348015610347575f5ffd5b5061015c610356366004611246565b610ccc565b348015610366575f5ffd5b5061018961037536600461126e565b610e34565b348015610385575f5ffd5b5061015c61039436600461126e565b610e9c565b60605f8267ffffffffffffffff8111156103b5576103b56112e5565b6040519080825280602002602001820160405280156103de578160200160208202803683370190505b5090505f5b8381101561049f578484828181106103fd576103fd6112f9565b9050602002016020810190610412919061126e565b6040516370a0823160e01b81523060048201526001600160a01b0391909116906370a0823190602401602060405180830381865afa158015610456573d5f5f3e3d5ffd5b505050506040513d601f19601f8201168201806040525081019061047a919061130d565b82828151811061048c5761048c6112f9565b60209081029190910101526001016103e3565b5090505b92915050565b6104b1610fc9565b6001600160a01b0382166104e05760405162461bcd60e51b81526004016104d790611324565b60405180910390fd5b5f81116104ff5760405162461bcd60e51b81526004016104d790611359565b6040516370a0823160e01b8152336004820152829082906001600160a01b038316906370a0823190602401602060405180830381865afa158015610545573d5f5f3e3d5ffd5b505050506040513d601f19601f82011682018060405250810190610569919061130d565b10156105c55760405162461bcd60e51b815260206004820152602560248201527f557365725661756c743a20496e73756666696369656e7420746f6b656e2062616044820152646c616e636560d81b60648201526084016104d7565b604051636eb1769f60e11b815233600482015230602482015282906001600160a01b0383169063dd62ed3e90604401602060405180830381865afa15801561060f573d5f5f3e3d5ffd5b505050506040513d601f19601f82011682018060405250810190610633919061130d565b10156106915760405162461bcd60e51b815260206004820152602760248201527f557365725661756c743a20496e73756666696369656e7420746f6b656e20616c6044820152666c6f77616e636560c81b60648201526084016104d7565b6106a66001600160a01b038216333085610ff3565b6001600160a01b0383165f90815260026020526040812080548492906106cd9084906113b5565b90915550506001600160a01b0383165f9081526004602052604090205460ff1661078a576003805460018082019092557fc2575a0e9e593c00f959f8c92f12db2869c3395a3b0502d05e2516446f71f85b0180546001600160a01b0319166001600160a01b0386169081179091555f81815260046020908152604091829020805460ff19169094179093555142815290917ff4c563a3ea86ff1f4275e8c207df0375a51963f2b831b7bf4da8be938d92876c910160405180910390a25b6040805183815242602082015233916001600160a01b038616917f09c19ec084a7a17a7a092a89fb51a7662c32b435253ca1ce77010a4068336215910160405180910390a3506107d960018055565b5050565b6107e5611060565b6001600160a01b0381165f9081526004602052604090205460ff1661084c5760405162461bcd60e51b815260206004820152601e60248201527f557365725661756c743a20546f6b656e206e6f7420737570706f72746564000060448201526064016104d7565b6001600160a01b0381165f90815260026020526040902054156108c55760405162461bcd60e51b815260206004820152602b60248201527f557365725661756c743a2043616e6e6f742072656d6f766520746f6b656e207760448201526a6974682062616c616e636560a81b60648201526084016104d7565b5f5b6003548110156109bb57816001600160a01b0316600382815481106108ee576108ee6112f9565b5f918252602090912001546001600160a01b0316036109b35760038054610917906001906113c8565b81548110610927576109276112f9565b5f91825260209091200154600380546001600160a01b039092169183908110610952576109526112f9565b905f5260205f20015f6101000a8154816001600160a01b0302191690836001600160a01b03160217905550600380548061098e5761098e6113db565b5f8281526020902081015f1990810180546001600160a01b03191690550190556109bb565b6001016108c7565b506001600160a01b0381165f8181526004602052604090819020805460ff19169055517fbe9bb4bdca0a094babd75e3a98b1d2e2390633430d0a2f6e2b9970e2ee03fb2e90610a0d9042815260200190565b60405180910390a250565b610a20611060565b610a295f61108c565b565b5f5f5f5f610a405f546001600160a01b031690565b60035490957f000000000000000000000000000000000000000000000000000000000000000095509093505f92509050565b60038181548110610a81575f80fd5b5f918252602090912001546001600160a01b0316905081565b610aa2611060565b5f5b81811015610c2a575f838383818110610abf57610abf6112f9565b9050602002016020810190610ad4919061126e565b90506001600160a01b03811615801590610b0657506001600160a01b0381165f9081526004602052604090205460ff16155b15610c21576040516370a0823160e01b81523060048201525f906001600160a01b038316906370a0823190602401602060405180830381865afa158015610b4f573d5f5f3e3d5ffd5b505050506040513d601f19601f82011682018060405250810190610b73919061130d565b90508015610c1f576003805460018082019092557fc2575a0e9e593c00f959f8c92f12db2869c3395a3b0502d05e2516446f71f85b0180546001600160a01b0319166001600160a01b0385169081179091555f818152600460209081526040808320805460ff19169095179094556002815290839020849055915142815290917ff4c563a3ea86ff1f4275e8c207df0375a51963f2b831b7bf4da8be938d92876c910160405180910390a25b505b50600101610aa4565b505050565b60606003805480602002602001604051908101604052809291908181526020018280548015610c8557602002820191905f5260205f20905b81546001600160a01b03168152600190910190602001808311610c67575b5050505050905090565b610c97611060565b6001600160a01b038116610cc057604051631e4fbdf760e01b81525f60048201526024016104d7565b610cc98161108c565b50565b610cd4611060565b610cdc610fc9565b6001600160a01b038216610d025760405162461bcd60e51b81526004016104d790611324565b5f8111610d215760405162461bcd60e51b81526004016104d790611359565b6001600160a01b0382165f90815260026020526040902054811115610d965760405162461bcd60e51b815260206004820152602560248201527f557365725661756c743a20496e73756666696369656e74207661756c742062616044820152646c616e636560d81b60648201526084016104d7565b6001600160a01b0382165f9081526002602052604081208054839290610dbd9084906113c8565b90915550505f54610de3906001600160a01b03165b6001600160a01b03841690836110db565b5f546040805183815242602082015281516001600160a01b03938416938616927fa1b8b675e45a4aa34f25af53b8f232c9ef44017db83cc0df5a914dbe54ed46cb928290030190a36107d960018055565b6040516370a0823160e01b81523060048201525f906001600160a01b038316906370a0823190602401602060405180830381865afa158015610e78573d5f5f3e3d5ffd5b505050506040513d601f19601f820116820180604052508101906104a3919061130d565b610ea4611060565b610eac610fc9565b6001600160a01b038116610ed25760405162461bcd60e51b81526004016104d790611324565b6001600160a01b0381165f9081526002602052604090205480610f375760405162461bcd60e51b815260206004820181905260248201527f557365725661756c743a204e6f20746f6b656e7320746f20776974686472617760448201526064016104d7565b6001600160a01b0382165f9081526002602052604081208054839290610f5e9084906113c8565b90915550505f54610f77906001600160a01b0316610dd2565b5f546040805183815242602082015281516001600160a01b03938416938616927fa1b8b675e45a4aa34f25af53b8f232c9ef44017db83cc0df5a914dbe54ed46cb928290030190a350610cc960018055565b600260015403610fec57604051633ee5aeb560e01b815260040160405180910390fd5b6002600155565b6040516001600160a01b03848116602483015283811660448301526064820183905261105a9186918216906323b872dd906084015b604051602081830303815290604052915060e01b6020820180516001600160e01b03838183161783525050505061110c565b50505050565b5f546001600160a01b03163314610a295760405163118cdaa760e01b81523360048201526024016104d7565b5f80546001600160a01b038381166001600160a01b0319831681178455604051919092169283917f8be0079c531659141344cd1fd0a4f28419497f9722a3daafe3b4186f6b6457e09190a35050565b6040516001600160a01b03838116602483015260448201839052610c2a91859182169063a9059cbb90606401611028565b5f5f60205f8451602086015f885af18061112b576040513d5f823e3d81fd5b50505f513d9150811561114257806001141561114f565b6001600160a01b0384163b155b1561105a57604051635274afe760e01b81526001600160a01b03851660048201526024016104d7565b5f5f60208385031215611189575f5ffd5b823567ffffffffffffffff81111561119f575f5ffd5b8301601f810185136111af575f5ffd5b803567ffffffffffffffff8111156111c5575f5ffd5b8560208260051b84010111156111d9575f5ffd5b6020919091019590945092505050565b602080825282518282018190525f918401906040840190835b81811015611220578351835260209384019390920191600101611202565b509095945050505050565b80356001600160a01b0381168114611241575f5ffd5b919050565b5f5f60408385031215611257575f5ffd5b6112608361122b565b946020939093013593505050565b5f6020828403121561127e575f5ffd5b6112878261122b565b9392505050565b5f6020828403121561129e575f5ffd5b5035919050565b602080825282518282018190525f918401906040840190835b818110156112205783516001600160a01b03168352602093840193909201916001016112be565b634e487b7160e01b5f52604160045260245ffd5b634e487b7160e01b5f52603260045260245ffd5b5f6020828403121561131d575f5ffd5b5051919050565b6020808252818101527f557365725661756c743a20496e76616c696420746f6b656e2061646472657373604082015260600190565b60208082526028908201527f557365725661756c743a20416d6f756e74206d75737420626520677265617465604082015267072207468616e20360c41b606082015260800190565b634e487b7160e01b5f52601160045260245ffd5b808201808211156104a3576104a36113a1565b818103818111156104a3576104a36113a1565b634e487b7160e01b5f52603160045260245ffdfea2646970667358221220fe8718b74b2a4d8892ecafe8baa0c19c22b8295119d3a7ee12fde586ebb6fa1264736f6c634300081c0033a26469706673582212207704753decc1b0fccc806e9f17059d721d3997f443368e784055819c41753a0c64736f6c634300081c0033",
  "linkReferences": {},
  "deployedLinkReferences": {},
  "immutableReferences": {},
  "inputSourceName": "project/contracts/VaultFactory.sol",
  "buildInfoId": "solc-0_8_28-96674874c8d9932bc037d1032c3648804c1c4906"
}