{"project/contracts/UserVault.sol":{"UserVault":{"abi":[{"inputs":[{"internalType":"address","name":"_owner","type":"address"},{"internalType":"address","name":"_factory","type":"address"}],"stateMutability":"nonpayable","type":"constructor"},{"inputs":[{"internalType":"address","name":"owner","type":"address"}],"name":"OwnableInvalidOwner","type":"error"},{"inputs":[{"internalType":"address","name":"account","type":"address"}],"name":"OwnableUnauthorizedAccount","type":"error"},{"inputs":[],"name":"ReentrancyGuardReentrantCall","type":"error"},{"inputs":[{"internalType":"address","name":"token","type":"address"}],"name":"SafeERC20FailedOperation","type":"error"},{"anonymous":false,"inputs":[{"indexed":true,"internalType":"address","name":"token","type":"address"},{"indexed":false,"internalType":"uint256","name":"timestamp","type":"uint256"}],"name":"AutoSyncTriggered","type":"event"},{"anonymous":false,"inputs":[{"indexed":true,"internalType":"address","name":"token","type":"address"},{"indexed":false,"internalType":"uint256","name":"oldBalance","type":"uint256"},{"indexed":false,"internalType":"uint256","name":"newBalance","type":"uint256"},{"indexed":false,"internalType":"uint256","name":"timestamp","type":"uint256"}],"name":"BalanceSynced","type":"event"},{"anonymous":false,"inputs":[{"indexed":true,"internalType":"address","name":"previousOwner","type":"address"},{"indexed":true,"internalType":"address","name":"newOwner","type":"address"}],"name":"OwnershipTransferred","type":"event"},{"anonymous":false,"inputs":[{"indexed":true,"internalType":"address","name":"token","type":"address"},{"indexed":false,"internalType":"uint256","name":"timestamp","type":"uint256"}],"name":"TokenAdded","type":"event"},{"anonymous":false,"inputs":[{"indexed":true,"internalType":"address","name":"token","type":"address"},{"indexed":false,"internalType":"uint256","name":"timestamp","type":"uint256"}],"name":"TokenRemoved","type":"event"},{"anonymous":false,"inputs":[{"indexed":true,"internalType":"address","name":"token","type":"address"},{"indexed":false,"internalType":"uint256","name":"amount","type":"uint256"},{"indexed":true,"internalType":"address","name":"from","type":"address"},{"indexed":false,"internalType":"uint256","name":"timestamp","type":"uint256"}],"name":"TokensReceived","type":"event"},{"anonymous":false,"inputs":[{"indexed":true,"internalType":"address","name":"token","type":"address"},{"indexed":false,"internalType":"uint256","name":"amount","type":"uint256"},{"indexed":true,"internalType":"address","name":"to","type":"address"},{"indexed":false,"internalType":"uint256","name":"timestamp","type":"uint256"}],"name":"TokensWithdrawn","type":"event"},{"inputs":[],"name":"AUTO_SYNC_THRESHOLD","outputs":[{"internalType":"uint256","name":"","type":"uint256"}],"stateMutability":"view","type":"function"},{"inputs":[{"internalType":"address","name":"token","type":"address"},{"internalType":"uint256","name":"amount","type":"uint256"}],"name":"deposit","outputs":[],"stateMutability":"nonpayable","type":"function"},{"inputs":[{"internalType":"address","name":"token","type":"address"},{"internalType":"uint256","name":"amount","type":"uint256"},{"internalType":"address","name":"to","type":"address"}],"name":"emergencyRecover","outputs":[],"stateMutability":"nonpayable","type":"function"},{"inputs":[],"name":"factory","outputs":[{"internalType":"address","name":"","type":"address"}],"stateMutability":"view","type":"function"},{"inputs":[],"name":"getAllSupportedTokens","outputs":[{"internalType":"address[]","name":"","type":"address[]"}],"stateMutability":"view","type":"function"},{"inputs":[{"internalType":"address","name":"token","type":"address"}],"name":"getBalance","outputs":[{"internalType":"uint256","name":"","type":"uint256"}],"stateMutability":"view","type":"function"},{"inputs":[{"internalType":"address","name":"token","type":"address"}],"name":"getLastSyncTimestamp","outputs":[{"internalType":"uint256","name":"","type":"uint256"}],"stateMutability":"view","type":"function"},{"inputs":[],"name":"getSupportedTokenCount","outputs":[{"internalType":"uint256","name":"","type":"uint256"}],"stateMutability":"view","type":"function"},{"inputs":[{"internalType":"address","name":"token","type":"address"}],"name":"getTrackedBalance","outputs":[{"internalType":"uint256","name":"","type":"uint256"}],"stateMutability":"view","type":"function"},{"inputs":[{"internalType":"address","name":"","type":"address"}],"name":"isTokenSupported","outputs":[{"internalType":"bool","name":"","type":"bool"}],"stateMutability":"view","type":"function"},{"inputs":[{"internalType":"address","name":"","type":"address"}],"name":"lastSyncTimestamp","outputs":[{"internalType":"uint256","name":"","type":"uint256"}],"stateMutability":"view","type":"function"},{"inputs":[{"internalType":"address","name":"token","type":"address"}],"name":"needsSync","outputs":[{"internalType":"bool","name":"","type":"bool"}],"stateMutability":"view","type":"function"},{"inputs":[],"name":"owner","outputs":[{"internalType":"address","name":"","type":"address"}],"stateMutability":"view","type":"function"},{"inputs":[{"internalType":"address","name":"token","type":"address"}],"name":"removeToken","outputs":[],"stateMutability":"nonpayable","type":"function"},{"inputs":[],"name":"renounceOwnership","outputs":[],"stateMutability":"nonpayable","type":"function"},{"inputs":[{"internalType":"uint256","name":"","type":"uint256"}],"name":"supportedTokens","outputs":[{"internalType":"address","name":"","type":"address"}],"stateMutability":"view","type":"function"},{"inputs":[],"name":"syncAllTokens","outputs":[],"stateMutability":"nonpayable","type":"function"},{"inputs":[{"internalType":"address","name":"token","type":"address"}],"name":"syncTokenBalance","outputs":[],"stateMutability":"nonpayable","type":"function"},{"inputs":[{"internalType":"address","name":"","type":"address"}],"name":"tokenBalances","outputs":[{"internalType":"uint256","name":"","type":"uint256"}],"stateMutability":"view","type":"function"},{"inputs":[{"internalType":"address","name":"newOwner","type":"address"}],"name":"transferOwnership","outputs":[],"stateMutability":"nonpayable","type":"function"},{"inputs":[{"internalType":"uint256","name":"newThreshold","type":"uint256"}],"name":"updateAutoSyncThreshold","outputs":[],"stateMutability":"nonpayable","type":"function"},{"inputs":[{"internalType":"address","name":"token","type":"address"},{"internalType":"uint256","name":"amount","type":"uint256"},{"internalType":"address","name":"to","type":"address"}],"name":"withdrawTo","outputs":[],"stateMutability":"nonpayable","type":"function"}],"evm":{"bytecode":{"linkReferences":{},"object":"60a060405234801561000f575f5ffd5b506040516111a83803806111a883398101604081905261002e916100e6565b816001600160a01b03811661005c57604051631e4fbdf760e01b81525f600482015260240160405180910390fd5b6100658161007c565b50600180556001600160a01b031660805250610117565b5f80546001600160a01b038381166001600160a01b0319831681178455604051919092169283917f8be0079c531659141344cd1fd0a4f28419497f9722a3daafe3b4186f6b6457e09190a35050565b80516001600160a01b03811681146100e1575f5ffd5b919050565b5f5f604083850312156100f7575f5ffd5b610100836100cb565b915061010e602084016100cb565b90509250929050565b60805161107961012f5f395f6102a801526110795ff3fe608060405234801561000f575f5ffd5b506004361061013d575f3560e01c806375151b63116100b4578063c625562611610079578063c6255626146102dd578063ce67be26146102f0578063e6cb85a7146102f8578063eb40133f14610320578063f2fde38b14610333578063f8b2cb4f14610346575f5ffd5b806375151b63146102545780638c4e2c61146102765780638da5cb5b1461027f578063c45a0155146102a3578063c4e2c1e6146102ca575f5ffd5b8063494d565b11610105578063494d565b146101a2578063523fba7f146101cf57806354eb3591146101ee57806356fa1fa9146102165780635fa7b58414610239578063715018a61461024c575f5ffd5b80630107e472146101415780630867d7f11461015f578063086f93a81461016957806311f8e88e1461017c57806347e7ef241461018f575b5f5ffd5b610149610359565b6040516101569190610e0b565b60405180910390f35b6101676103b9565b005b610167610177366004610e71565b61040a565b61016761018a366004610eaa565b610489565b61016761019d366004610ec1565b6104e0565b6101c16101b0366004610ee9565b60056020525f908152604090205481565b604051908152602001610156565b6101c16101dd366004610ee9565b60026020525f908152604090205481565b6101c16101fc366004610ee9565b6001600160a01b03165f9081526005602052604090205490565b610229610224366004610ee9565b610693565b6040519015158152602001610156565b610167610247366004610ee9565b6106a3565b610167610876565b610229610262366004610ee9565b60046020525f908152604090205460ff1681565b6101c161012c81565b5f546001600160a01b03165b6040516001600160a01b039091168152602001610156565b61028b7f000000000000000000000000000000000000000000000000000000000000000081565b6101676102d8366004610e71565b610889565b61028b6102eb366004610eaa565b610a1b565b6003546101c1565b6101c1610306366004610ee9565b6001600160a01b03165f9081526002602052604090205490565b61016761032e366004610ee9565b610a43565b610167610341366004610ee9565b610a4c565b6101c1610354366004610ee9565b610a86565b606060038054806020026020016040519081016040528092919081815260200182805480156103af57602002820191905f5260205f20905b81546001600160a01b03168152600190910190602001808311610391575b5050505050905090565b5f5b600354811015610407575f600382815481106103d9576103d9610f09565b5f918252602090912001546001600160a01b0316905080156103fe576103fe81610a90565b506001016103bb565b50565b610412610b47565b6001600160a01b0383166104415760405162461bcd60e51b815260040161043890610f1d565b60405180910390fd5b6001600160a01b0381166104675760405162461bcd60e51b815260040161043890610f52565b61047b6001600160a01b0384168284610b73565b61048483610bd2565b505050565b610491610b47565b5f81116104075760405162461bcd60e51b815260206004820152601c60248201527f557365725661756c743a20496e76616c6964207468726573686f6c64000000006044820152606401610438565b6104e8610c2c565b6001600160a01b03821661050e5760405162461bcd60e51b815260040161043890610f1d565b5f811161052d5760405162461bcd60e51b815260040161043890610f96565b61053682610bd2565b61054b6001600160a01b038316333084610c56565b6001600160a01b0382165f9081526002602052604081208054839290610572908490610ff2565b90915550506001600160a01b0382165f9081526004602052604090205460ff1661062f576003805460018082019092557fc2575a0e9e593c00f959f8c92f12db2869c3395a3b0502d05e2516446f71f85b0180546001600160a01b0319166001600160a01b0385169081179091555f81815260046020908152604091829020805460ff19169094179093555142815290917ff4c563a3ea86ff1f4275e8c207df0375a51963f2b831b7bf4da8be938d92876c910160405180910390a25b6001600160a01b0382165f8181526005602090815260409182902042908190558251858152918201523392917f09c19ec084a7a17a7a092a89fb51a7662c32b435253ca1ce77010a4068336215910160405180910390a361068f60018055565b5050565b5f61069d82610c95565b92915050565b6106ab610b47565b6001600160a01b0381165f9081526004602052604090205460ff166107125760405162461bcd60e51b815260206004820152601e60248201527f557365725661756c743a20546f6b656e206e6f7420737570706f7274656400006044820152606401610438565b61071b81610bd2565b6001600160a01b0381165f908152600460205260408120805460ff191690555b60035481101561082f57816001600160a01b03166003828154811061076257610762610f09565b5f918252602090912001546001600160a01b031603610827576003805461078b90600190611005565b8154811061079b5761079b610f09565b5f91825260209091200154600380546001600160a01b0390921691839081106107c6576107c6610f09565b905f5260205f20015f6101000a8154816001600160a01b0302191690836001600160a01b03160217905550600380548061080257610802611018565b5f8281526020902081015f1990810180546001600160a01b031916905501905561082f565b60010161073b565b50806001600160a01b03167fbe9bb4bdca0a094babd75e3a98b1d2e2390633430d0a2f6e2b9970e2ee03fb2e4260405161086b91815260200190565b60405180910390a250565b61087e610b47565b6108875f610ce8565b565b610891610b47565b610899610c2c565b6001600160a01b0383166108bf5760405162461bcd60e51b815260040161043890610f1d565b6001600160a01b0381166108e55760405162461bcd60e51b815260040161043890610f52565b5f82116109045760405162461bcd60e51b815260040161043890610f96565b61090d83610bd2565b5f61091784610d37565b9050828110156109775760405162461bcd60e51b815260206004820152602560248201527f557365725661756c743a20496e73756666696369656e74207661756c742062616044820152646c616e636560d81b6064820152608401610438565b6001600160a01b0384165f908152600260205260408120805485929061099e908490611005565b909155506109b890506001600160a01b0385168385610b73565b6001600160a01b038481165f818152600560209081526040918290204290819055825188815291820152928516927fa1b8b675e45a4aa34f25af53b8f232c9ef44017db83cc0df5a914dbe54ed46cb910160405180910390a35061048460018055565b60038181548110610a2a575f80fd5b5f918252602090912001546001600160a01b0316905081565b61040781610a90565b610a54610b47565b6001600160a01b038116610a7d57604051631e4fbdf760e01b81525f6004820152602401610438565b61040781610ce8565b5f61069d82610d37565b6001600160a01b038116610ab65760405162461bcd60e51b815260040161043890610f1d565b6001600160a01b0381165f9081526002602052604081205490610ad883610d37565b6001600160a01b0384165f81815260026020908152604080832085905560058252918290204290819055825187815291820185905281830152905192935090917f7259188e632112e4799f2fdc64c3499a12f095eafe79b38664c369dbd01ed6ea9181900360600190a2505050565b5f546001600160a01b031633146108875760405163118cdaa760e01b8152336004820152602401610438565b6040516001600160a01b0383811660248301526044820183905261048491859182169063a9059cbb906064015b604051602081830303815290604052915060e01b6020820180516001600160e01b038381831617835250505050610d9f565b610bdb81610c95565b1561040757806001600160a01b03167f0662239c833f58bdd39ca61c63bad2e6dd68cb448bfe1b34f1d54bbfc3c07b8042604051610c1b91815260200190565b60405180910390a261040781610a90565b600260015403610c4f57604051633ee5aeb560e01b815260040160405180910390fd5b6002600155565b6040516001600160a01b038481166024830152838116604483015260648201839052610c8f9186918216906323b872dd90608401610ba0565b50505050565b6001600160a01b0381165f908152600560205260408120548103610cbb57506001919050565b6001600160a01b0382165f9081526005602052604090205461012c90610ce19042611005565b1192915050565b5f80546001600160a01b038381166001600160a01b0319831681178455604051919092169283917f8be0079c531659141344cd1fd0a4f28419497f9722a3daafe3b4186f6b6457e09190a35050565b6040516370a0823160e01b81523060048201525f906001600160a01b038316906370a0823190602401602060405180830381865afa158015610d7b573d5f5f3e3d5ffd5b505050506040513d601f19601f8201168201806040525081019061069d919061102c565b5f5f60205f8451602086015f885af180610dbe576040513d5f823e3d81fd5b50505f513d91508115610dd5578060011415610de2565b6001600160a01b0384163b155b15610c8f57604051635274afe760e01b81526001600160a01b0385166004820152602401610438565b602080825282518282018190525f918401906040840190835b81811015610e4b5783516001600160a01b0316835260209384019390920191600101610e24565b509095945050505050565b80356001600160a01b0381168114610e6c575f5ffd5b919050565b5f5f5f60608486031215610e83575f5ffd5b610e8c84610e56565b925060208401359150610ea160408501610e56565b90509250925092565b5f60208284031215610eba575f5ffd5b5035919050565b5f5f60408385031215610ed2575f5ffd5b610edb83610e56565b946020939093013593505050565b5f60208284031215610ef9575f5ffd5b610f0282610e56565b9392505050565b634e487b7160e01b5f52603260045260245ffd5b6020808252818101527f557365725661756c743a20496e76616c696420746f6b656e2061646472657373604082015260600190565b60208082526024908201527f557365725661756c743a20496e76616c696420726563697069656e74206164646040820152637265737360e01b606082015260800190565b60208082526028908201527f557365725661756c743a20416d6f756e74206d75737420626520677265617465604082015267072207468616e20360c41b606082015260800190565b634e487b7160e01b5f52601160045260245ffd5b8082018082111561069d5761069d610fde565b8181038181111561069d5761069d610fde565b634e487b7160e01b5f52603160045260245ffd5b5f6020828403121561103c575f5ffd5b505191905056fea2646970667358221220ac8fd6ed5b3da914e74d9e504728723e3e401460f8d9e3a76deb423f2d0d3f8e64736f6c634300081c0033","opcodes":"PUSH1 0xA0 PUSH1 0x40 MSTORE CALLVALUE DUP1 ISZERO PUSH2 0xF JUMPI PUSH0 PUSH0 REVERT JUMPDEST POP PUSH1 0x40 MLOAD PUSH2 0x11A8 CODESIZE SUB DUP1 PUSH2 0x11A8 DUP4 CODECOPY DUP2 ADD PUSH1 0x40 DUP2 SWAP1 MSTORE PUSH2 0x2E SWAP2 PUSH2 0xE6 JUMP JUMPDEST DUP2 PUSH1 0x1 PUSH1 0x1 PUSH1 0xA0 SHL SUB DUP2 AND PUSH2 0x5C JUMPI PUSH1 0x40 MLOAD PUSH4 0x1E4FBDF7 PUSH1 0xE0 SHL DUP2 MSTORE PUSH0 PUSH1 0x4 DUP3 ADD MSTORE PUSH1 0x24 ADD PUSH1 0x40 MLOAD DUP1 SWAP2 SUB SWAP1 REVERT JUMPDEST PUSH2 0x65 DUP2 PUSH2 0x7C JUMP JUMPDEST POP PUSH1 0x1 DUP1 SSTORE PUSH1 0x1 PUSH1 0x1 PUSH1 0xA0 SHL SUB AND PUSH1 0x80 MSTORE POP PUSH2 0x117 JUMP JUMPDEST PUSH0 DUP1 SLOAD PUSH1 0x1 PUSH1 0x1 PUSH1 0xA0 SHL SUB DUP4 DUP2 AND PUSH1 0x1 PUSH1 0x1 PUSH1 0xA0 SHL SUB NOT DUP4 AND DUP2 OR DUP5 SSTORE PUSH1 0x40 MLOAD SWAP2 SWAP1 SWAP3 AND SWAP3 DUP4 SWAP2 PUSH32 0x8BE0079C531659141344CD1FD0A4F28419497F9722A3DAAFE3B4186F6B6457E0 SWAP2 SWAP1 LOG3 POP POP JUMP JUMPDEST DUP1 MLOAD PUSH1 0x1 PUSH1 0x1 PUSH1 0xA0 SHL SUB DUP2 AND DUP2 EQ PUSH2 0xE1 JUMPI PUSH0 PUSH0 REVERT JUMPDEST SWAP2 SWAP1 POP JUMP JUMPDEST PUSH0 PUSH0 PUSH1 0x40 DUP4 DUP6 SUB SLT ISZERO PUSH2 0xF7 JUMPI PUSH0 PUSH0 REVERT JUMPDEST PUSH2 0x100 DUP4 PUSH2 0xCB JUMP JUMPDEST SWAP2 POP PUSH2 0x10E PUSH1 0x20 DUP5 ADD PUSH2 0xCB JUMP JUMPDEST SWAP1 POP SWAP3 POP SWAP3 SWAP1 POP JUMP JUMPDEST PUSH1 0x80 MLOAD PUSH2 0x1079 PUSH2 0x12F PUSH0 CODECOPY PUSH0 PUSH2 0x2A8 ADD MSTORE PUSH2 0x1079 PUSH0 RETURN INVALID PUSH1 0x80 PUSH1 0x40 MSTORE CALLVALUE DUP1 ISZERO PUSH2 0xF JUMPI PUSH0 PUSH0 REVERT JUMPDEST POP PUSH1 0x4 CALLDATASIZE LT PUSH2 0x13D JUMPI PUSH0 CALLDATALOAD PUSH1 0xE0 SHR DUP1 PUSH4 0x75151B63 GT PUSH2 0xB4 JUMPI DUP1 PUSH4 0xC6255626 GT PUSH2 0x79 JUMPI DUP1 PUSH4 0xC6255626 EQ PUSH2 0x2DD JUMPI DUP1 PUSH4 0xCE67BE26 EQ PUSH2 0x2F0 JUMPI DUP1 PUSH4 0xE6CB85A7 EQ PUSH2 0x2F8 JUMPI DUP1 PUSH4 0xEB40133F EQ PUSH2 0x320 JUMPI DUP1 PUSH4 0xF2FDE38B EQ PUSH2 0x333 JUMPI DUP1 PUSH4 0xF8B2CB4F EQ PUSH2 0x346 JUMPI PUSH0 PUSH0 REVERT JUMPDEST DUP1 PUSH4 0x75151B63 EQ PUSH2 0x254 JUMPI DUP1 PUSH4 0x8C4E2C61 EQ PUSH2 0x276 JUMPI DUP1 PUSH4 0x8DA5CB5B EQ PUSH2 0x27F JUMPI DUP1 PUSH4 0xC45A0155 EQ PUSH2 0x2A3 JUMPI DUP1 PUSH4 0xC4E2C1E6 EQ PUSH2 0x2CA JUMPI PUSH0 PUSH0 REVERT JUMPDEST DUP1 PUSH4 0x494D565B GT PUSH2 0x105 JUMPI DUP1 PUSH4 0x494D565B EQ PUSH2 0x1A2 JUMPI DUP1 PUSH4 0x523FBA7F EQ PUSH2 0x1CF JUMPI DUP1 PUSH4 0x54EB3591 EQ PUSH2 0x1EE JUMPI DUP1 PUSH4 0x56FA1FA9 EQ PUSH2 0x216 JUMPI DUP1 PUSH4 0x5FA7B584 EQ PUSH2 0x239 JUMPI DUP1 PUSH4 0x715018A6 EQ PUSH2 0x24C JUMPI PUSH0 PUSH0 REVERT JUMPDEST DUP1 PUSH4 0x107E472 EQ PUSH2 0x141 JUMPI DUP1 PUSH4 0x867D7F1 EQ PUSH2 0x15F JUMPI DUP1 PUSH4 0x86F93A8 EQ PUSH2 0x169 JUMPI DUP1 PUSH4 0x11F8E88E EQ PUSH2 0x17C JUMPI DUP1 PUSH4 0x47E7EF24 EQ PUSH2 0x18F JUMPI JUMPDEST PUSH0 PUSH0 REVERT JUMPDEST PUSH2 0x149 PUSH2 0x359 JUMP JUMPDEST PUSH1 0x40 MLOAD PUSH2 0x156 SWAP2 SWAP1 PUSH2 0xE0B JUMP JUMPDEST PUSH1 0x40 MLOAD DUP1 SWAP2 SUB SWAP1 RETURN JUMPDEST PUSH2 0x167 PUSH2 0x3B9 JUMP JUMPDEST STOP JUMPDEST PUSH2 0x167 PUSH2 0x177 CALLDATASIZE PUSH1 0x4 PUSH2 0xE71 JUMP JUMPDEST PUSH2 0x40A JUMP JUMPDEST PUSH2 0x167 PUSH2 0x18A CALLDATASIZE PUSH1 0x4 PUSH2 0xEAA JUMP JUMPDEST PUSH2 0x489 JUMP JUMPDEST PUSH2 0x167 PUSH2 0x19D CALLDATASIZE PUSH1 0x4 PUSH2 0xEC1 JUMP JUMPDEST PUSH2 0x4E0 JUMP JUMPDEST PUSH2 0x1C1 PUSH2 0x1B0 CALLDATASIZE PUSH1 0x4 PUSH2 0xEE9 JUMP JUMPDEST PUSH1 0x5 PUSH1 0x20 MSTORE PUSH0 SWAP1 DUP2 MSTORE PUSH1 0x40 SWAP1 KECCAK256 SLOAD DUP2 JUMP JUMPDEST PUSH1 0x40 MLOAD SWAP1 DUP2 MSTORE PUSH1 0x20 ADD PUSH2 0x156 JUMP JUMPDEST PUSH2 0x1C1 PUSH2 0x1DD CALLDATASIZE PUSH1 0x4 PUSH2 0xEE9 JUMP JUMPDEST PUSH1 0x2 PUSH1 0x20 MSTORE PUSH0 SWAP1 DUP2 MSTORE PUSH1 0x40 SWAP1 KECCAK256 SLOAD DUP2 JUMP JUMPDEST PUSH2 0x1C1 PUSH2 0x1FC CALLDATASIZE PUSH1 0x4 PUSH2 0xEE9 JUMP JUMPDEST PUSH1 0x1 PUSH1 0x1 PUSH1 0xA0 SHL SUB AND PUSH0 SWAP1 DUP2 MSTORE PUSH1 0x5 PUSH1 0x20 MSTORE PUSH1 0x40 SWAP1 KECCAK256 SLOAD SWAP1 JUMP JUMPDEST PUSH2 0x229 PUSH2 0x224 CALLDATASIZE PUSH1 0x4 PUSH2 0xEE9 JUMP JUMPDEST PUSH2 0x693 JUMP JUMPDEST PUSH1 0x40 MLOAD SWAP1 ISZERO ISZERO DUP2 MSTORE PUSH1 0x20 ADD PUSH2 0x156 JUMP JUMPDEST PUSH2 0x167 PUSH2 0x247 CALLDATASIZE PUSH1 0x4 PUSH2 0xEE9 JUMP JUMPDEST PUSH2 0x6A3 JUMP JUMPDEST PUSH2 0x167 PUSH2 0x876 JUMP JUMPDEST PUSH2 0x229 PUSH2 0x262 CALLDATASIZE PUSH1 0x4 PUSH2 0xEE9 JUMP JUMPDEST PUSH1 0x4 PUSH1 0x20 MSTORE PUSH0 SWAP1 DUP2 MSTORE PUSH1 0x40 SWAP1 KECCAK256 SLOAD PUSH1 0xFF AND DUP2 JUMP JUMPDEST PUSH2 0x1C1 PUSH2 0x12C DUP2 JUMP JUMPDEST PUSH0 SLOAD PUSH1 0x1 PUSH1 0x1 PUSH1 0xA0 SHL SUB AND JUMPDEST PUSH1 0x40 MLOAD PUSH1 0x1 PUSH1 0x1 PUSH1 0xA0 SHL SUB SWAP1 SWAP2 AND DUP2 MSTORE PUSH1 0x20 ADD PUSH2 0x156 JUMP JUMPDEST PUSH2 0x28B PUSH32 0x0 DUP2 JUMP JUMPDEST PUSH2 0x167 PUSH2 0x2D8 CALLDATASIZE PUSH1 0x4 PUSH2 0xE71 JUMP JUMPDEST PUSH2 0x889 JUMP JUMPDEST PUSH2 0x28B PUSH2 0x2EB CALLDATASIZE PUSH1 0x4 PUSH2 0xEAA JUMP JUMPDEST PUSH2 0xA1B JUMP JUMPDEST PUSH1 0x3 SLOAD PUSH2 0x1C1 JUMP JUMPDEST PUSH2 0x1C1 PUSH2 0x306 CALLDATASIZE PUSH1 0x4 PUSH2 0xEE9 JUMP JUMPDEST PUSH1 0x1 PUSH1 0x1 PUSH1 0xA0 SHL SUB AND PUSH0 SWAP1 DUP2 MSTORE PUSH1 0x2 PUSH1 0x20 MSTORE PUSH1 0x40 SWAP1 KECCAK256 SLOAD SWAP1 JUMP JUMPDEST PUSH2 0x167 PUSH2 0x32E CALLDATASIZE PUSH1 0x4 PUSH2 0xEE9 JUMP JUMPDEST PUSH2 0xA43 JUMP JUMPDEST PUSH2 0x167 PUSH2 0x341 CALLDATASIZE PUSH1 0x4 PUSH2 0xEE9 JUMP JUMPDEST PUSH2 0xA4C JUMP JUMPDEST PUSH2 0x1C1 PUSH2 0x354 CALLDATASIZE PUSH1 0x4 PUSH2 0xEE9 JUMP JUMPDEST PUSH2 0xA86 JUMP JUMPDEST PUSH1 0x60 PUSH1 0x3 DUP1 SLOAD DUP1 PUSH1 0x20 MUL PUSH1 0x20 ADD PUSH1 0x40 MLOAD SWAP1 DUP2 ADD PUSH1 0x40 MSTORE DUP1 SWAP3 SWAP2 SWAP1 DUP2 DUP2 MSTORE PUSH1 0x20 ADD DUP3 DUP1 SLOAD DUP1 ISZERO PUSH2 0x3AF JUMPI PUSH1 0x20 MUL DUP3 ADD SWAP2 SWAP1 PUSH0 MSTORE PUSH1 0x20 PUSH0 KECCAK256 SWAP1 JUMPDEST DUP2 SLOAD PUSH1 0x1 PUSH1 0x1 PUSH1 0xA0 SHL SUB AND DUP2 MSTORE PUSH1 0x1 SWAP1 SWAP2 ADD SWAP1 PUSH1 0x20 ADD DUP1 DUP4 GT PUSH2 0x391 JUMPI JUMPDEST POP POP POP POP POP SWAP1 POP SWAP1 JUMP JUMPDEST PUSH0 JUMPDEST PUSH1 0x3 SLOAD DUP2 LT ISZERO PUSH2 0x407 JUMPI PUSH0 PUSH1 0x3 DUP3 DUP2 SLOAD DUP2 LT PUSH2 0x3D9 JUMPI PUSH2 0x3D9 PUSH2 0xF09 JUMP JUMPDEST PUSH0 SWAP2 DUP3 MSTORE PUSH1 0x20 SWAP1 SWAP2 KECCAK256 ADD SLOAD PUSH1 0x1 PUSH1 0x1 PUSH1 0xA0 SHL SUB AND SWAP1 POP DUP1 ISZERO PUSH2 0x3FE JUMPI PUSH2 0x3FE DUP2 PUSH2 0xA90 JUMP JUMPDEST POP PUSH1 0x1 ADD PUSH2 0x3BB JUMP JUMPDEST POP JUMP JUMPDEST PUSH2 0x412 PUSH2 0xB47 JUMP JUMPDEST PUSH1 0x1 PUSH1 0x1 PUSH1 0xA0 SHL SUB DUP4 AND PUSH2 0x441 JUMPI PUSH1 0x40 MLOAD PUSH3 0x461BCD PUSH1 0xE5 SHL DUP2 MSTORE PUSH1 0x4 ADD PUSH2 0x438 SWAP1 PUSH2 0xF1D JUMP JUMPDEST PUSH1 0x40 MLOAD DUP1 SWAP2 SUB SWAP1 REVERT JUMPDEST PUSH1 0x1 PUSH1 0x1 PUSH1 0xA0 SHL SUB DUP2 AND PUSH2 0x467 JUMPI PUSH1 0x40 MLOAD PUSH3 0x461BCD PUSH1 0xE5 SHL DUP2 MSTORE PUSH1 0x4 ADD PUSH2 0x438 SWAP1 PUSH2 0xF52 JUMP JUMPDEST PUSH2 0x47B PUSH1 0x1 PUSH1 0x1 PUSH1 0xA0 SHL SUB DUP5 AND DUP3 DUP5 PUSH2 0xB73 JUMP JUMPDEST PUSH2 0x484 DUP4 PUSH2 0xBD2 JUMP JUMPDEST POP POP POP JUMP JUMPDEST PUSH2 0x491 PUSH2 0xB47 JUMP JUMPDEST PUSH0 DUP2 GT PUSH2 0x407 JUMPI PUSH1 0x40 MLOAD PUSH3 0x461BCD PUSH1 0xE5 SHL DUP2 MSTORE PUSH1 0x20 PUSH1 0x4 DUP3 ADD MSTORE PUSH1 0x1C PUSH1 0x24 DUP3 ADD MSTORE PUSH32 0x557365725661756C743A20496E76616C6964207468726573686F6C6400000000 PUSH1 0x44 DUP3 ADD MSTORE PUSH1 0x64 ADD PUSH2 0x438 JUMP JUMPDEST PUSH2 0x4E8 PUSH2 0xC2C JUMP JUMPDEST PUSH1 0x1 PUSH1 0x1 PUSH1 0xA0 SHL SUB DUP3 AND PUSH2 0x50E JUMPI PUSH1 0x40 MLOAD PUSH3 0x461BCD PUSH1 0xE5 SHL DUP2 MSTORE PUSH1 0x4 ADD PUSH2 0x438 SWAP1 PUSH2 0xF1D JUMP JUMPDEST PUSH0 DUP2 GT PUSH2 0x52D JUMPI PUSH1 0x40 MLOAD PUSH3 0x461BCD PUSH1 0xE5 SHL DUP2 MSTORE PUSH1 0x4 ADD PUSH2 0x438 SWAP1 PUSH2 0xF96 JUMP JUMPDEST PUSH2 0x536 DUP3 PUSH2 0xBD2 JUMP JUMPDEST PUSH2 0x54B PUSH1 0x1 PUSH1 0x1 PUSH1 0xA0 SHL SUB DUP4 AND CALLER ADDRESS DUP5 PUSH2 0xC56 JUMP JUMPDEST PUSH1 0x1 PUSH1 0x1 PUSH1 0xA0 SHL SUB DUP3 AND PUSH0 SWAP1 DUP2 MSTORE PUSH1 0x2 PUSH1 0x20 MSTORE PUSH1 0x40 DUP2 KECCAK256 DUP1 SLOAD DUP4 SWAP3 SWAP1 PUSH2 0x572 SWAP1 DUP5 SWAP1 PUSH2 0xFF2 JUMP JUMPDEST SWAP1 SWAP2 SSTORE POP POP PUSH1 0x1 PUSH1 0x1 PUSH1 0xA0 SHL SUB DUP3 AND PUSH0 SWAP1 DUP2 MSTORE PUSH1 0x4 PUSH1 0x20 MSTORE PUSH1 0x40 SWAP1 KECCAK256 SLOAD PUSH1 0xFF AND PUSH2 0x62F JUMPI PUSH1 0x3 DUP1 SLOAD PUSH1 0x1 DUP1 DUP3 ADD SWAP1 SWAP3 SSTORE PUSH32 0xC2575A0E9E593C00F959F8C92F12DB2869C3395A3B0502D05E2516446F71F85B ADD DUP1 SLOAD PUSH1 0x1 PUSH1 0x1 PUSH1 0xA0 SHL SUB NOT AND PUSH1 0x1 PUSH1 0x1 PUSH1 0xA0 SHL SUB DUP6 AND SWAP1 DUP2 OR SWAP1 SWAP2 SSTORE PUSH0 DUP2 DUP2 MSTORE PUSH1 0x4 PUSH1 0x20 SWAP1 DUP2 MSTORE PUSH1 0x40 SWAP2 DUP3 SWAP1 KECCAK256 DUP1 SLOAD PUSH1 0xFF NOT AND SWAP1 SWAP5 OR SWAP1 SWAP4 SSTORE MLOAD TIMESTAMP DUP2 MSTORE SWAP1 SWAP2 PUSH32 0xF4C563A3EA86FF1F4275E8C207DF0375A51963F2B831B7BF4DA8BE938D92876C SWAP2 ADD PUSH1 0x40 MLOAD DUP1 SWAP2 SUB SWAP1 LOG2 JUMPDEST PUSH1 0x1 PUSH1 0x1 PUSH1 0xA0 SHL SUB DUP3 AND PUSH0 DUP2 DUP2 MSTORE PUSH1 0x5 PUSH1 0x20 SWAP1 DUP2 MSTORE PUSH1 0x40 SWAP2 DUP3 SWAP1 KECCAK256 TIMESTAMP SWAP1 DUP2 SWAP1 SSTORE DUP3 MLOAD DUP6 DUP2 MSTORE SWAP2 DUP3 ADD MSTORE CALLER SWAP3 SWAP2 PUSH32 0x9C19EC084A7A17A7A092A89FB51A7662C32B435253CA1CE77010A4068336215 SWAP2 ADD PUSH1 0x40 MLOAD DUP1 SWAP2 SUB SWAP1 LOG3 PUSH2 0x68F PUSH1 0x1 DUP1 SSTORE JUMP JUMPDEST POP POP JUMP JUMPDEST PUSH0 PUSH2 0x69D DUP3 PUSH2 0xC95 JUMP JUMPDEST SWAP3 SWAP2 POP POP JUMP JUMPDEST PUSH2 0x6AB PUSH2 0xB47 JUMP JUMPDEST PUSH1 0x1 PUSH1 0x1 PUSH1 0xA0 SHL SUB DUP2 AND PUSH0 SWAP1 DUP2 MSTORE PUSH1 0x4 PUSH1 0x20 MSTORE PUSH1 0x40 SWAP1 KECCAK256 SLOAD PUSH1 0xFF AND PUSH2 0x712 JUMPI PUSH1 0x40 MLOAD PUSH3 0x461BCD PUSH1 0xE5 SHL DUP2 MSTORE PUSH1 0x20 PUSH1 0x4 DUP3 ADD MSTORE PUSH1 0x1E PUSH1 0x24 DUP3 ADD MSTORE PUSH32 0x557365725661756C743A20546F6B656E206E6F7420737570706F727465640000 PUSH1 0x44 DUP3 ADD MSTORE PUSH1 0x64 ADD PUSH2 0x438 JUMP JUMPDEST PUSH2 0x71B DUP2 PUSH2 0xBD2 JUMP JUMPDEST PUSH1 0x1 PUSH1 0x1 PUSH1 0xA0 SHL SUB DUP2 AND PUSH0 SWAP1 DUP2 MSTORE PUSH1 0x4 PUSH1 0x20 MSTORE PUSH1 0x40 DUP2 KECCAK256 DUP1 SLOAD PUSH1 0xFF NOT AND SWAP1 SSTORE JUMPDEST PUSH1 0x3 SLOAD DUP2 LT ISZERO PUSH2 0x82F JUMPI DUP2 PUSH1 0x1 PUSH1 0x1 PUSH1 0xA0 SHL SUB AND PUSH1 0x3 DUP3 DUP2 SLOAD DUP2 LT PUSH2 0x762 JUMPI PUSH2 0x762 PUSH2 0xF09 JUMP JUMPDEST PUSH0 SWAP2 DUP3 MSTORE PUSH1 0x20 SWAP1 SWAP2 KECCAK256 ADD SLOAD PUSH1 0x1 PUSH1 0x1 PUSH1 0xA0 SHL SUB AND SUB PUSH2 0x827 JUMPI PUSH1 0x3 DUP1 SLOAD PUSH2 0x78B SWAP1 PUSH1 0x1 SWAP1 PUSH2 0x1005 JUMP JUMPDEST DUP2 SLOAD DUP2 LT PUSH2 0x79B JUMPI PUSH2 0x79B PUSH2 0xF09 JUMP JUMPDEST PUSH0 SWAP2 DUP3 MSTORE PUSH1 0x20 SWAP1 SWAP2 KECCAK256 ADD SLOAD PUSH1 0x3 DUP1 SLOAD PUSH1 0x1 PUSH1 0x1 PUSH1 0xA0 SHL SUB SWAP1 SWAP3 AND SWAP2 DUP4 SWAP1 DUP2 LT PUSH2 0x7C6 JUMPI PUSH2 0x7C6 PUSH2 0xF09 JUMP JUMPDEST SWAP1 PUSH0 MSTORE PUSH1 0x20 PUSH0 KECCAK256 ADD PUSH0 PUSH2 0x100 EXP DUP2 SLOAD DUP2 PUSH1 0x1 PUSH1 0x1 PUSH1 0xA0 SHL SUB MUL NOT AND SWAP1 DUP4 PUSH1 0x1 PUSH1 0x1 PUSH1 0xA0 SHL SUB AND MUL OR SWAP1 SSTORE POP PUSH1 0x3 DUP1 SLOAD DUP1 PUSH2 0x802 JUMPI PUSH2 0x802 PUSH2 0x1018 JUMP JUMPDEST PUSH0 DUP3 DUP2 MSTORE PUSH1 0x20 SWAP1 KECCAK256 DUP2 ADD PUSH0 NOT SWAP1 DUP2 ADD DUP1 SLOAD PUSH1 0x1 PUSH1 0x1 PUSH1 0xA0 SHL SUB NOT AND SWAP1 SSTORE ADD SWAP1 SSTORE PUSH2 0x82F JUMP JUMPDEST PUSH1 0x1 ADD PUSH2 0x73B JUMP JUMPDEST POP DUP1 PUSH1 0x1 PUSH1 0x1 PUSH1 0xA0 SHL SUB AND PUSH32 0xBE9BB4BDCA0A094BABD75E3A98B1D2E2390633430D0A2F6E2B9970E2EE03FB2E TIMESTAMP PUSH1 0x40 MLOAD PUSH2 0x86B SWAP2 DUP2 MSTORE PUSH1 0x20 ADD SWAP1 JUMP JUMPDEST PUSH1 0x40 MLOAD DUP1 SWAP2 SUB SWAP1 LOG2 POP JUMP JUMPDEST PUSH2 0x87E PUSH2 0xB47 JUMP JUMPDEST PUSH2 0x887 PUSH0 PUSH2 0xCE8 JUMP JUMPDEST JUMP JUMPDEST PUSH2 0x891 PUSH2 0xB47 JUMP JUMPDEST PUSH2 0x899 PUSH2 0xC2C JUMP JUMPDEST PUSH1 0x1 PUSH1 0x1 PUSH1 0xA0 SHL SUB DUP4 AND PUSH2 0x8BF JUMPI PUSH1 0x40 MLOAD PUSH3 0x461BCD PUSH1 0xE5 SHL DUP2 MSTORE PUSH1 0x4 ADD PUSH2 0x438 SWAP1 PUSH2 0xF1D JUMP JUMPDEST PUSH1 0x1 PUSH1 0x1 PUSH1 0xA0 SHL SUB DUP2 AND PUSH2 0x8E5 JUMPI PUSH1 0x40 MLOAD PUSH3 0x461BCD PUSH1 0xE5 SHL DUP2 MSTORE PUSH1 0x4 ADD PUSH2 0x438 SWAP1 PUSH2 0xF52 JUMP JUMPDEST PUSH0 DUP3 GT PUSH2 0x904 JUMPI PUSH1 0x40 MLOAD PUSH3 0x461BCD PUSH1 0xE5 SHL DUP2 MSTORE PUSH1 0x4 ADD PUSH2 0x438 SWAP1 PUSH2 0xF96 JUMP JUMPDEST PUSH2 0x90D DUP4 PUSH2 0xBD2 JUMP JUMPDEST PUSH0 PUSH2 0x917 DUP5 PUSH2 0xD37 JUMP JUMPDEST SWAP1 POP DUP3 DUP2 LT ISZERO PUSH2 0x977 JUMPI PUSH1 0x40 MLOAD PUSH3 0x461BCD PUSH1 0xE5 SHL DUP2 MSTORE PUSH1 0x20 PUSH1 0x4 DUP3 ADD MSTORE PUSH1 0x25 PUSH1 0x24 DUP3 ADD MSTORE PUSH32 0x557365725661756C743A20496E73756666696369656E74207661756C74206261 PUSH1 0x44 DUP3 ADD MSTORE PUSH5 0x6C616E6365 PUSH1 0xD8 SHL PUSH1 0x64 DUP3 ADD MSTORE PUSH1 0x84 ADD PUSH2 0x438 JUMP JUMPDEST PUSH1 0x1 PUSH1 0x1 PUSH1 0xA0 SHL SUB DUP5 AND PUSH0 SWAP1 DUP2 MSTORE PUSH1 0x2 PUSH1 0x20 MSTORE PUSH1 0x40 DUP2 KECCAK256 DUP1 SLOAD DUP6 SWAP3 SWAP1 PUSH2 0x99E SWAP1 DUP5 SWAP1 PUSH2 0x1005 JUMP JUMPDEST SWAP1 SWAP2 SSTORE POP PUSH2 0x9B8 SWAP1 POP PUSH1 0x1 PUSH1 0x1 PUSH1 0xA0 SHL SUB DUP6 AND DUP4 DUP6 PUSH2 0xB73 JUMP JUMPDEST PUSH1 0x1 PUSH1 0x1 PUSH1 0xA0 SHL SUB DUP5 DUP2 AND PUSH0 DUP2 DUP2 MSTORE PUSH1 0x5 PUSH1 0x20 SWAP1 DUP2 MSTORE PUSH1 0x40 SWAP2 DUP3 SWAP1 KECCAK256 TIMESTAMP SWAP1 DUP2 SWAP1 SSTORE DUP3 MLOAD DUP9 DUP2 MSTORE SWAP2 DUP3 ADD MSTORE SWAP3 DUP6 AND SWAP3 PUSH32 0xA1B8B675E45A4AA34F25AF53B8F232C9EF44017DB83CC0DF5A914DBE54ED46CB SWAP2 ADD PUSH1 0x40 MLOAD DUP1 SWAP2 SUB SWAP1 LOG3 POP PUSH2 0x484 PUSH1 0x1 DUP1 SSTORE JUMP JUMPDEST PUSH1 0x3 DUP2 DUP2 SLOAD DUP2 LT PUSH2 0xA2A JUMPI PUSH0 DUP1 REVERT JUMPDEST PUSH0 SWAP2 DUP3 MSTORE PUSH1 0x20 SWAP1 SWAP2 KECCAK256 ADD SLOAD PUSH1 0x1 PUSH1 0x1 PUSH1 0xA0 SHL SUB AND SWAP1 POP DUP2 JUMP JUMPDEST PUSH2 0x407 DUP2 PUSH2 0xA90 JUMP JUMPDEST PUSH2 0xA54 PUSH2 0xB47 JUMP JUMPDEST PUSH1 0x1 PUSH1 0x1 PUSH1 0xA0 SHL SUB DUP2 AND PUSH2 0xA7D JUMPI PUSH1 0x40 MLOAD PUSH4 0x1E4FBDF7 PUSH1 0xE0 SHL DUP2 MSTORE PUSH0 PUSH1 0x4 DUP3 ADD MSTORE PUSH1 0x24 ADD PUSH2 0x438 JUMP JUMPDEST PUSH2 0x407 DUP2 PUSH2 0xCE8 JUMP JUMPDEST PUSH0 PUSH2 0x69D DUP3 PUSH2 0xD37 JUMP JUMPDEST PUSH1 0x1 PUSH1 0x1 PUSH1 0xA0 SHL SUB DUP2 AND PUSH2 0xAB6 JUMPI PUSH1 0x40 MLOAD PUSH3 0x461BCD PUSH1 0xE5 SHL DUP2 MSTORE PUSH1 0x4 ADD PUSH2 0x438 SWAP1 PUSH2 0xF1D JUMP JUMPDEST PUSH1 0x1 PUSH1 0x1 PUSH1 0xA0 SHL SUB DUP2 AND PUSH0 SWAP1 DUP2 MSTORE PUSH1 0x2 PUSH1 0x20 MSTORE PUSH1 0x40 DUP2 KECCAK256 SLOAD SWAP1 PUSH2 0xAD8 DUP4 PUSH2 0xD37 JUMP JUMPDEST PUSH1 0x1 PUSH1 0x1 PUSH1 0xA0 SHL SUB DUP5 AND PUSH0 DUP2 DUP2 MSTORE PUSH1 0x2 PUSH1 0x20 SWAP1 DUP2 MSTORE PUSH1 0x40 DUP1 DUP4 KECCAK256 DUP6 SWAP1 SSTORE PUSH1 0x5 DUP3 MSTORE SWAP2 DUP3 SWAP1 KECCAK256 TIMESTAMP SWAP1 DUP2 SWAP1 SSTORE DUP3 MLOAD DUP8 DUP2 MSTORE SWAP2 DUP3 ADD DUP6 SWAP1 MSTORE DUP2 DUP4 ADD MSTORE SWAP1 MLOAD SWAP3 SWAP4 POP SWAP1 SWAP2 PUSH32 0x7259188E632112E4799F2FDC64C3499A12F095EAFE79B38664C369DBD01ED6EA SWAP2 DUP2 SWAP1 SUB PUSH1 0x60 ADD SWAP1 LOG2 POP POP POP JUMP JUMPDEST PUSH0 SLOAD PUSH1 0x1 PUSH1 0x1 PUSH1 0xA0 SHL SUB AND CALLER EQ PUSH2 0x887 JUMPI PUSH1 0x40 MLOAD PUSH4 0x118CDAA7 PUSH1 0xE0 SHL DUP2 MSTORE CALLER PUSH1 0x4 DUP3 ADD MSTORE PUSH1 0x24 ADD PUSH2 0x438 JUMP JUMPDEST PUSH1 0x40 MLOAD PUSH1 0x1 PUSH1 0x1 PUSH1 0xA0 SHL SUB DUP4 DUP2 AND PUSH1 0x24 DUP4 ADD MSTORE PUSH1 0x44 DUP3 ADD DUP4 SWAP1 MSTORE PUSH2 0x484 SWAP2 DUP6 SWAP2 DUP3 AND SWAP1 PUSH4 0xA9059CBB SWAP1 PUSH1 0x64 ADD JUMPDEST PUSH1 0x40 MLOAD PUSH1 0x20 DUP2 DUP4 SUB SUB DUP2 MSTORE SWAP1 PUSH1 0x40 MSTORE SWAP2 POP PUSH1 0xE0 SHL PUSH1 0x20 DUP3 ADD DUP1 MLOAD PUSH1 0x1 PUSH1 0x1 PUSH1 0xE0 SHL SUB DUP4 DUP2 DUP4 AND OR DUP4 MSTORE POP POP POP POP PUSH2 0xD9F JUMP JUMPDEST PUSH2 0xBDB DUP2 PUSH2 0xC95 JUMP JUMPDEST ISZERO PUSH2 0x407 JUMPI DUP1 PUSH1 0x1 PUSH1 0x1 PUSH1 0xA0 SHL SUB AND PUSH32 0x662239C833F58BDD39CA61C63BAD2E6DD68CB448BFE1B34F1D54BBFC3C07B80 TIMESTAMP PUSH1 0x40 MLOAD PUSH2 0xC1B SWAP2 DUP2 MSTORE PUSH1 0x20 ADD SWAP1 JUMP JUMPDEST PUSH1 0x40 MLOAD DUP1 SWAP2 SUB SWAP1 LOG2 PUSH2 0x407 DUP2 PUSH2 0xA90 JUMP JUMPDEST PUSH1 0x2 PUSH1 0x1 SLOAD SUB PUSH2 0xC4F JUMPI PUSH1 0x40 MLOAD PUSH4 0x3EE5AEB5 PUSH1 0xE0 SHL DUP2 MSTORE PUSH1 0x4 ADD PUSH1 0x40 MLOAD DUP1 SWAP2 SUB SWAP1 REVERT JUMPDEST PUSH1 0x2 PUSH1 0x1 SSTORE JUMP JUMPDEST PUSH1 0x40 MLOAD PUSH1 0x1 PUSH1 0x1 PUSH1 0xA0 SHL SUB DUP5 DUP2 AND PUSH1 0x24 DUP4 ADD MSTORE DUP4 DUP2 AND PUSH1 0x44 DUP4 ADD MSTORE PUSH1 0x64 DUP3 ADD DUP4 SWAP1 MSTORE PUSH2 0xC8F SWAP2 DUP7 SWAP2 DUP3 AND SWAP1 PUSH4 0x23B872DD SWAP1 PUSH1 0x84 ADD PUSH2 0xBA0 JUMP JUMPDEST POP POP POP POP JUMP JUMPDEST PUSH1 0x1 PUSH1 0x1 PUSH1 0xA0 SHL SUB DUP2 AND PUSH0 SWAP1 DUP2 MSTORE PUSH1 0x5 PUSH1 0x20 MSTORE PUSH1 0x40 DUP2 KECCAK256 SLOAD DUP2 SUB PUSH2 0xCBB JUMPI POP PUSH1 0x1 SWAP2 SWAP1 POP JUMP JUMPDEST PUSH1 0x1 PUSH1 0x1 PUSH1 0xA0 SHL SUB DUP3 AND PUSH0 SWAP1 DUP2 MSTORE PUSH1 0x5 PUSH1 0x20 MSTORE PUSH1 0x40 SWAP1 KECCAK256 SLOAD PUSH2 0x12C SWAP1 PUSH2 0xCE1 SWAP1 TIMESTAMP PUSH2 0x1005 JUMP JUMPDEST GT SWAP3 SWAP2 POP POP JUMP JUMPDEST PUSH0 DUP1 SLOAD PUSH1 0x1 PUSH1 0x1 PUSH1 0xA0 SHL SUB DUP4 DUP2 AND PUSH1 0x1 PUSH1 0x1 PUSH1 0xA0 SHL SUB NOT DUP4 AND DUP2 OR DUP5 SSTORE PUSH1 0x40 MLOAD SWAP2 SWAP1 SWAP3 AND SWAP3 DUP4 SWAP2 PUSH32 0x8BE0079C531659141344CD1FD0A4F28419497F9722A3DAAFE3B4186F6B6457E0 SWAP2 SWAP1 LOG3 POP POP JUMP JUMPDEST PUSH1 0x40 MLOAD PUSH4 0x70A08231 PUSH1 0xE0 SHL DUP2 MSTORE ADDRESS PUSH1 0x4 DUP3 ADD MSTORE PUSH0 SWAP1 PUSH1 0x1 PUSH1 0x1 PUSH1 0xA0 SHL SUB DUP4 AND SWAP1 PUSH4 0x70A08231 SWAP1 PUSH1 0x24 ADD PUSH1 0x20 PUSH1 0x40 MLOAD DUP1 DUP4 SUB DUP2 DUP7 GAS STATICCALL ISZERO DUP1 ISZERO PUSH2 0xD7B JUMPI RETURNDATASIZE PUSH0 PUSH0 RETURNDATACOPY RETURNDATASIZE PUSH0 REVERT JUMPDEST POP POP POP POP PUSH1 0x40 MLOAD RETURNDATASIZE PUSH1 0x1F NOT PUSH1 0x1F DUP3 ADD AND DUP3 ADD DUP1 PUSH1 0x40 MSTORE POP DUP2 ADD SWAP1 PUSH2 0x69D SWAP2 SWAP1 PUSH2 0x102C JUMP JUMPDEST PUSH0 PUSH0 PUSH1 0x20 PUSH0 DUP5 MLOAD PUSH1 0x20 DUP7 ADD PUSH0 DUP9 GAS CALL DUP1 PUSH2 0xDBE JUMPI PUSH1 0x40 MLOAD RETURNDATASIZE PUSH0 DUP3 RETURNDATACOPY RETURNDATASIZE DUP2 REVERT JUMPDEST POP POP PUSH0 MLOAD RETURNDATASIZE SWAP2 POP DUP2 ISZERO PUSH2 0xDD5 JUMPI DUP1 PUSH1 0x1 EQ ISZERO PUSH2 0xDE2 JUMP JUMPDEST PUSH1 0x1 PUSH1 0x1 PUSH1 0xA0 SHL SUB DUP5 AND EXTCODESIZE ISZERO JUMPDEST ISZERO PUSH2 0xC8F JUMPI PUSH1 0x40 MLOAD PUSH4 0x5274AFE7 PUSH1 0xE0 SHL DUP2 MSTORE PUSH1 0x1 PUSH1 0x1 PUSH1 0xA0 SHL SUB DUP6 AND PUSH1 0x4 DUP3 ADD MSTORE PUSH1 0x24 ADD PUSH2 0x438 JUMP JUMPDEST PUSH1 0x20 DUP1 DUP3 MSTORE DUP3 MLOAD DUP3 DUP3 ADD DUP2 SWAP1 MSTORE PUSH0 SWAP2 DUP5 ADD SWAP1 PUSH1 0x40 DUP5 ADD SWAP1 DUP4 JUMPDEST DUP2 DUP2 LT ISZERO PUSH2 0xE4B JUMPI DUP4 MLOAD PUSH1 0x1 PUSH1 0x1 PUSH1 0xA0 SHL SUB AND DUP4 MSTORE PUSH1 0x20 SWAP4 DUP5 ADD SWAP4 SWAP1 SWAP3 ADD SWAP2 PUSH1 0x1 ADD PUSH2 0xE24 JUMP JUMPDEST POP SWAP1 SWAP6 SWAP5 POP POP POP POP POP JUMP JUMPDEST DUP1 CALLDATALOAD PUSH1 0x1 PUSH1 0x1 PUSH1 0xA0 SHL SUB DUP2 AND DUP2 EQ PUSH2 0xE6C JUMPI PUSH0 PUSH0 REVERT JUMPDEST SWAP2 SWAP1 POP JUMP JUMPDEST PUSH0 PUSH0 PUSH0 PUSH1 0x60 DUP5 DUP7 SUB SLT ISZERO PUSH2 0xE83 JUMPI PUSH0 PUSH0 REVERT JUMPDEST PUSH2 0xE8C DUP5 PUSH2 0xE56 JUMP JUMPDEST SWAP3 POP PUSH1 0x20 DUP5 ADD CALLDATALOAD SWAP2 POP PUSH2 0xEA1 PUSH1 0x40 DUP6 ADD PUSH2 0xE56 JUMP JUMPDEST SWAP1 POP SWAP3 POP SWAP3 POP SWAP3 JUMP JUMPDEST PUSH0 PUSH1 0x20 DUP3 DUP5 SUB SLT ISZERO PUSH2 0xEBA JUMPI PUSH0 PUSH0 REVERT JUMPDEST POP CALLDATALOAD SWAP2 SWAP1 POP JUMP JUMPDEST PUSH0 PUSH0 PUSH1 0x40 DUP4 DUP6 SUB SLT ISZERO PUSH2 0xED2 JUMPI PUSH0 PUSH0 REVERT JUMPDEST PUSH2 0xEDB DUP4 PUSH2 0xE56 JUMP JUMPDEST SWAP5 PUSH1 0x20 SWAP4 SWAP1 SWAP4 ADD CALLDATALOAD SWAP4 POP POP POP JUMP JUMPDEST PUSH0 PUSH1 0x20 DUP3 DUP5 SUB SLT ISZERO PUSH2 0xEF9 JUMPI PUSH0 PUSH0 REVERT JUMPDEST PUSH2 0xF02 DUP3 PUSH2 0xE56 JUMP JUMPDEST SWAP4 SWAP3 POP POP POP JUMP JUMPDEST PUSH4 0x4E487B71 PUSH1 0xE0 SHL PUSH0 MSTORE PUSH1 0x32 PUSH1 0x4 MSTORE PUSH1 0x24 PUSH0 REVERT JUMPDEST PUSH1 0x20 DUP1 DUP3 MSTORE DUP2 DUP2 ADD MSTORE PUSH32 0x557365725661756C743A20496E76616C696420746F6B656E2061646472657373 PUSH1 0x40 DUP3 ADD MSTORE PUSH1 0x60 ADD SWAP1 JUMP JUMPDEST PUSH1 0x20 DUP1 DUP3 MSTORE PUSH1 0x24 SWAP1 DUP3 ADD MSTORE PUSH32 0x557365725661756C743A20496E76616C696420726563697069656E7420616464 PUSH1 0x40 DUP3 ADD MSTORE PUSH4 0x72657373 PUSH1 0xE0 SHL PUSH1 0x60 DUP3 ADD MSTORE PUSH1 0x80 ADD SWAP1 JUMP JUMPDEST PUSH1 0x20 DUP1 DUP3 MSTORE PUSH1 0x28 SWAP1 DUP3 ADD MSTORE PUSH32 0x557365725661756C743A20416D6F756E74206D75737420626520677265617465 PUSH1 0x40 DUP3 ADD MSTORE PUSH8 0x72207468616E203 PUSH1 0xC4 SHL PUSH1 0x60 DUP3 ADD MSTORE PUSH1 0x80 ADD SWAP1 JUMP JUMPDEST PUSH4 0x4E487B71 PUSH1 0xE0 SHL PUSH0 MSTORE PUSH1 0x11 PUSH1 0x4 MSTORE PUSH1 0x24 PUSH0 REVERT JUMPDEST DUP1 DUP3 ADD DUP1 DUP3 GT ISZERO PUSH2 0x69D JUMPI PUSH2 0x69D PUSH2 0xFDE JUMP JUMPDEST DUP2 DUP2 SUB DUP2 DUP2 GT ISZERO PUSH2 0x69D JUMPI PUSH2 0x69D PUSH2 0xFDE JUMP JUMPDEST PUSH4 0x4E487B71 PUSH1 0xE0 SHL PUSH0 MSTORE PUSH1 0x31 PUSH1 0x4 MSTORE PUSH1 0x24 PUSH0 REVERT JUMPDEST PUSH0 PUSH1 0x20 DUP3 DUP5 SUB SLT ISZERO PUSH2 0x103C JUMPI PUSH0 PUSH0 REVERT JUMPDEST POP MLOAD SWAP2 SWAP1 POP JUMP INVALID LOG2 PUSH5 0x6970667358 0x22 SLT KECCAK256 0xAC DUP16 0xD6 0xED JUMPDEST RETURNDATASIZE 0xA9 EQ 0xE7 0x4D SWAP15 POP SELFBALANCE 0x28 PUSH19 0x3E3E401460F8D9E3A76DEB423F2D0D3F8E6473 PUSH16 0x6C634300081C00330000000000000000 "},"methodIdentifiers":{"AUTO_SYNC_THRESHOLD()":"8c4e2c61","deposit(address,uint256)":"47e7ef24","emergencyRecover(address,uint256,address)":"086f93a8","factory()":"c45a0155","getAllSupportedTokens()":"0107e472","getBalance(address)":"f8b2cb4f","getLastSyncTimestamp(address)":"54eb3591","getSupportedTokenCount()":"ce67be26","getTrackedBalance(address)":"e6cb85a7","isTokenSupported(address)":"75151b63","lastSyncTimestamp(address)":"494d565b","needsSync(address)":"56fa1fa9","owner()":"8da5cb5b","removeToken(address)":"5fa7b584","renounceOwnership()":"715018a6","supportedTokens(uint256)":"c6255626","syncAllTokens()":"0867d7f1","syncTokenBalance(address)":"eb40133f","tokenBalances(address)":"523fba7f","transferOwnership(address)":"f2fde38b","updateAutoSyncThreshold(uint256)":"11f8e88e","withdrawTo(address,uint256,address)":"c4e2c1e6"}}}}}