{
  "_format": "hh3-artifact-1",
  "contractName": "UserVault",
  "sourceName": "contracts/UserVault.sol",
  "abi": [
    {
      "inputs": [
        {
          "internalType": "address",
          "name": "_owner",
          "type": "address"
        },
        {
          "internalType": "address",
          "name": "_factory",
          "type": "address"
        }
      ],
      "stateMutability": "nonpayable",
      "type": "constructor"
    },
    {
      "inputs": [
        {
          "internalType": "address",
          "name": "owner",
          "type": "address"
        }
      ],
      "name": "OwnableInvalidOwner",
      "type": "error"
    },
    {
      "inputs": [
        {
          "internalType": "address",
          "name": "account",
          "type": "address"
        }
      ],
      "name": "OwnableUnauthorizedAccount",
      "type": "error"
    },
    {
      "inputs": [],
      "name": "ReentrancyGuardReentrantCall",
      "type": "error"
    },
    {
      "inputs": [
        {
          "internalType": "address",
          "name": "token",
          "type": "address"
        }
      ],
      "name": "SafeERC20FailedOperation",
      "type": "error"
    },
    {
      "anonymous": false,
      "inputs": [
        {
          "indexed": true,
          "internalType": "address",
          "name": "previousOwner",
          "type": "address"
        },
        {
          "indexed": true,
          "internalType": "address",
          "name": "newOwner",
          "type": "address"
        }
      ],
      "name": "OwnershipTransferred",
      "type": "event"
    },
    {
      "anonymous": false,
      "inputs": [
        {
          "indexed": true,
          "internalType": "address",
          "name": "token",
          "type": "address"
        },
        {
          "indexed": false,
          "internalType": "uint256",
          "name": "timestamp",
          "type": "uint256"
        }
      ],
      "name": "TokenAdded",
      "type": "event"
    },
    {
      "anonymous": false,
      "inputs": [
        {
          "indexed": true,
          "internalType": "address",
          "name": "token",
          "type": "address"
        },
        {
          "indexed": false,
          "internalType": "uint256",
          "name": "timestamp",
          "type": "uint256"
        }
      ],
      "name": "TokenRemoved",
      "type": "event"
    },
    {
      "anonymous": false,
      "inputs": [
        {
          "indexed": true,
          "internalType": "address",
          "name": "token",
          "type": "address"
        },
        {
          "indexed": false,
          "internalType": "uint256",
          "name": "amount",
          "type": "uint256"
        },
        {
          "indexed": true,
          "internalType": "address",
          "name": "from",
          "type": "address"
        },
        {
          "indexed": false,
          "internalType": "uint256",
          "name": "timestamp",
          "type": "uint256"
        }
      ],
      "name": "TokensReceived",
      "type": "event"
    },
    {
      "anonymous": false,
      "inputs": [
        {
          "indexed": true,
          "internalType": "address",
          "name": "token",
          "type": "address"
        },
        {
          "indexed": false,
          "internalType": "uint256",
          "name": "amount",
          "type": "uint256"
        },
        {
          "indexed": true,
          "internalType": "address",
          "name": "to",
          "type": "address"
        },
        {
          "indexed": false,
          "internalType": "uint256",
          "name": "timestamp",
          "type": "uint256"
        }
      ],
      "name": "TokensWithdrawn",
      "type": "event"
    },
    {
      "inputs": [
        {
          "internalType": "address",
          "name": "token",
          "type": "address"
        },
        {
          "internalType": "uint256",
          "name": "amount",
          "type": "uint256"
        }
      ],
      "name": "deposit",
      "outputs": [],
      "stateMutability": "nonpayable",
      "type": "function"
    },
    {
      "inputs": [],
      "name": "factory",
      "outputs": [
        {
          "internalType": "address",
          "name": "",
          "type": "address"
        }
      ],
      "stateMutability": "view",
      "type": "function"
    },
    {
      "inputs": [
        {
          "internalType": "address",
          "name": "token",
          "type": "address"
        }
      ],
      "name": "getBalance",
      "outputs": [
        {
          "internalType": "uint256",
          "name": "",
          "type": "uint256"
        }
      ],
      "stateMutability": "view",
      "type": "function"
    },
    {
      "inputs": [
        {
          "internalType": "address[]",
          "name": "tokens",
          "type": "address[]"
        }
      ],
      "name": "getBalances",
      "outputs": [
        {
          "internalType": "uint256[]",
          "name": "",
          "type": "uint256[]"
        }
      ],
      "stateMutability": "view",
      "type": "function"
    },
    {
      "inputs": [],
      "name": "getSupportedTokenCount",
      "outputs": [
        {
          "internalType": "uint256",
          "name": "",
          "type": "uint256"
        }
      ],
      "stateMutability": "view",
      "type": "function"
    },
    {
      "inputs": [],
      "name": "getSupportedTokens",
      "outputs": [
        {
          "internalType": "address[]",
          "name": "",
          "type": "address[]"
        }
      ],
      "stateMutability": "view",
      "type": "function"
    },
    {
      "inputs": [],
      "name": "getVaultInfo",
      "outputs": [
        {
          "internalType": "address",
          "name": "ownerAddress",
          "type": "address"
        },
        {
          "internalType": "address",
          "name": "factoryAddress",
          "type": "address"
        },
        {
          "internalType": "uint256",
          "name": "tokenCount",
          "type": "uint256"
        },
        {
          "internalType": "uint256",
          "name": "totalValue",
          "type": "uint256"
        }
      ],
      "stateMutability": "view",
      "type": "function"
    },
    {
      "inputs": [
        {
          "internalType": "address",
          "name": "",
          "type": "address"
        }
      ],
      "name": "isTokenSupported",
      "outputs": [
        {
          "internalType": "bool",
          "name": "",
          "type": "bool"
        }
      ],
      "stateMutability": "view",
      "type": "function"
    },
    {
      "inputs": [],
      "name": "owner",
      "outputs": [
        {
          "internalType": "address",
          "name": "",
          "type": "address"
        }
      ],
      "stateMutability": "view",
      "type": "function"
    },
    {
      "inputs": [
        {
          "internalType": "address",
          "name": "token",
          "type": "address"
        }
      ],
      "name": "removeToken",
      "outputs": [],
      "stateMutability": "nonpayable",
      "type": "function"
    },
    {
      "inputs": [],
      "name": "renounceOwnership",
      "outputs": [],
      "stateMutability": "nonpayable",
      "type": "function"
    },
    {
      "inputs": [
        {
          "internalType": "uint256",
          "name": "",
          "type": "uint256"
        }
      ],
      "name": "supportedTokens",
      "outputs": [
        {
          "internalType": "address",
          "name": "",
          "type": "address"
        }
      ],
      "stateMutability": "view",
      "type": "function"
    },
    {
      "inputs": [
        {
          "internalType": "address",
          "name": "",
          "type": "address"
        }
      ],
      "name": "tokenBalances",
      "outputs": [
        {
          "internalType": "uint256",
          "name": "",
          "type": "uint256"
        }
      ],
      "stateMutability": "view",
      "type": "function"
    },
    {
      "inputs": [
        {
          "internalType": "address",
          "name": "newOwner",
          "type": "address"
        }
      ],
      "name": "transferOwnership",
      "outputs": [],
      "stateMutability": "nonpayable",
      "type": "function"
    },
    {
      "inputs": [
        {
          "internalType": "address",
          "name": "token",
          "type": "address"
        },
        {
          "internalType": "uint256",
          "name": "amount",
          "type": "uint256"
        }
      ],
      "name": "withdraw",
      "outputs": [],
      "stateMutability": "nonpayable",
      "type": "function"
    },
    {
      "inputs": [
        {
          "internalType": "address",
          "name": "token",
          "type": "address"
        }
      ],
      "name": "withdrawAll",
      "outputs": [],
      "stateMutability": "nonpayable",
      "type": "function"
    },
    {
      "stateMutability": "payable",
      "type": "receive"
    }
  ],
  "bytecode": "0x60a060405234801561000f575f5ffd5b5060405161130938038061130983398101604081905261002e916100e6565b816001600160a01b03811661005c57604051631e4fbdf760e01b81525f600482015260240160405180910390fd5b6100658161007c565b50600180556001600160a01b031660805250610117565b5f80546001600160a01b038381166001600160a01b0319831681178455604051919092169283917f8be0079c531659141344cd1fd0a4f28419497f9722a3daafe3b4186f6b6457e09190a35050565b80516001600160a01b03811681146100e1575f5ffd5b919050565b5f5f604083850312156100f7575f5ffd5b610100836100cb565b915061010e602084016100cb565b90509250929050565b6080516111d36101365f395f818161027d01526109ed01526111d35ff3fe6080604052600436106100f2575f3560e01c8063c45a015511610087578063f2fde38b11610057578063f2fde38b146102f3578063f3fef3a314610312578063f8b2cb4f14610331578063fa09e63014610365575f5ffd5b8063c45a01551461026c578063c62556261461029f578063ce67be26146102be578063d3c7c2c7146102d2575f5ffd5b8063715018a6116100c2578063715018a6146101ab57806375151b63146101bf5780637f98aa71146101fd5780638da5cb5b1461023c575f5ffd5b80632d2ae1c1146100fd57806347e7ef2414610132578063523fba7f146101535780635fa7b5841461018c575f5ffd5b366100f957005b5f5ffd5b348015610108575f5ffd5b5061011c610117366004610f26565b610384565b6040516101299190610f97565b60405180910390f35b34801561013d575f5ffd5b5061015161014c366004610ff4565b61044f565b005b34801561015e575f5ffd5b5061017e61016d36600461101c565b60026020525f908152604090205481565b604051908152602001610129565b348015610197575f5ffd5b506101516101a636600461101c565b610783565b3480156101b6575f5ffd5b506101516109be565b3480156101ca575f5ffd5b506101ed6101d936600461101c565b60046020525f908152604090205460ff1681565b6040519015158152602001610129565b348015610208575f5ffd5b506102116109d1565b604080516001600160a01b039586168152949093166020850152918301526060820152608001610129565b348015610247575f5ffd5b505f546001600160a01b03165b6040516001600160a01b039091168152602001610129565b348015610277575f5ffd5b506102547f000000000000000000000000000000000000000000000000000000000000000081565b3480156102aa575f5ffd5b506102546102b936600461103c565b610a18565b3480156102c9575f5ffd5b5060035461017e565b3480156102dd575f5ffd5b506102e6610a40565b6040516101299190611053565b3480156102fe575f5ffd5b5061015161030d36600461101c565b610aa0565b34801561031d575f5ffd5b5061015161032c366004610ff4565b610add565b34801561033c575f5ffd5b5061017e61034b36600461101c565b6001600160a01b03165f9081526002602052604090205490565b348015610370575f5ffd5b5061015161037f36600461101c565b610c45565b60605f8267ffffffffffffffff8111156103a0576103a0611093565b6040519080825280602002602001820160405280156103c9578160200160208202803683370190505b5090505f5b838110156104455760025f8686848181106103eb576103eb6110a7565b9050602002016020810190610400919061101c565b6001600160a01b03166001600160a01b031681526020019081526020015f2054828281518110610432576104326110a7565b60209081029190910101526001016103ce565b5090505b92915050565b610457610d72565b6001600160a01b0382166104865760405162461bcd60e51b815260040161047d906110bb565b60405180910390fd5b5f81116104a55760405162461bcd60e51b815260040161047d906110f0565b6040516370a0823160e01b8152336004820152829082906001600160a01b038316906370a0823190602401602060405180830381865afa1580156104eb573d5f5f3e3d5ffd5b505050506040513d601f19601f8201168201806040525081019061050f9190611138565b101561056b5760405162461bcd60e51b815260206004820152602560248201527f557365725661756c743a20496e73756666696369656e7420746f6b656e2062616044820152646c616e636560d81b606482015260840161047d565b604051636eb1769f60e11b815233600482015230602482015282906001600160a01b0383169063dd62ed3e90604401602060405180830381865afa1580156105b5573d5f5f3e3d5ffd5b505050506040513d601f19601f820116820180604052508101906105d99190611138565b10156106375760405162461bcd60e51b815260206004820152602760248201527f557365725661756c743a20496e73756666696369656e7420746f6b656e20616c6044820152666c6f77616e636560c81b606482015260840161047d565b61064c6001600160a01b038216333085610d9c565b6001600160a01b0383165f9081526002602052604081208054849290610673908490611163565b90915550506001600160a01b0383165f9081526004602052604090205460ff16610730576003805460018082019092557fc2575a0e9e593c00f959f8c92f12db2869c3395a3b0502d05e2516446f71f85b0180546001600160a01b0319166001600160a01b0386169081179091555f81815260046020908152604091829020805460ff19169094179093555142815290917ff4c563a3ea86ff1f4275e8c207df0375a51963f2b831b7bf4da8be938d92876c910160405180910390a25b6040805183815242602082015233916001600160a01b038616917f09c19ec084a7a17a7a092a89fb51a7662c32b435253ca1ce77010a4068336215910160405180910390a35061077f60018055565b5050565b61078b610e09565b6001600160a01b0381165f9081526004602052604090205460ff166107f25760405162461bcd60e51b815260206004820152601e60248201527f557365725661756c743a20546f6b656e206e6f7420737570706f727465640000604482015260640161047d565b6001600160a01b0381165f908152600260205260409020541561086b5760405162461bcd60e51b815260206004820152602b60248201527f557365725661756c743a2043616e6e6f742072656d6f766520746f6b656e207760448201526a6974682062616c616e636560a81b606482015260840161047d565b5f5b60035481101561096157816001600160a01b031660038281548110610894576108946110a7565b5f918252602090912001546001600160a01b03160361095957600380546108bd90600190611176565b815481106108cd576108cd6110a7565b5f91825260209091200154600380546001600160a01b0390921691839081106108f8576108f86110a7565b905f5260205f20015f6101000a8154816001600160a01b0302191690836001600160a01b03160217905550600380548061093457610934611189565b5f8281526020902081015f1990810180546001600160a01b0319169055019055610961565b60010161086d565b506001600160a01b0381165f8181526004602052604090819020805460ff19169055517fbe9bb4bdca0a094babd75e3a98b1d2e2390633430d0a2f6e2b9970e2ee03fb2e906109b39042815260200190565b60405180910390a250565b6109c6610e09565b6109cf5f610e35565b565b5f5f5f5f6109e65f546001600160a01b031690565b60035490957f000000000000000000000000000000000000000000000000000000000000000095509093505f92509050565b60038181548110610a27575f80fd5b5f918252602090912001546001600160a01b0316905081565b60606003805480602002602001604051908101604052809291908181526020018280548015610a9657602002820191905f5260205f20905b81546001600160a01b03168152600190910190602001808311610a78575b5050505050905090565b610aa8610e09565b6001600160a01b038116610ad157604051631e4fbdf760e01b81525f600482015260240161047d565b610ada81610e35565b50565b610ae5610e09565b610aed610d72565b6001600160a01b038216610b135760405162461bcd60e51b815260040161047d906110bb565b5f8111610b325760405162461bcd60e51b815260040161047d906110f0565b6001600160a01b0382165f90815260026020526040902054811115610ba75760405162461bcd60e51b815260206004820152602560248201527f557365725661756c743a20496e73756666696369656e74207661756c742062616044820152646c616e636560d81b606482015260840161047d565b6001600160a01b0382165f9081526002602052604081208054839290610bce908490611176565b90915550505f54610bf4906001600160a01b03165b6001600160a01b0384169083610e84565b5f546040805183815242602082015281516001600160a01b03938416938616927fa1b8b675e45a4aa34f25af53b8f232c9ef44017db83cc0df5a914dbe54ed46cb928290030190a361077f60018055565b610c4d610e09565b610c55610d72565b6001600160a01b038116610c7b5760405162461bcd60e51b815260040161047d906110bb565b6001600160a01b0381165f9081526002602052604090205480610ce05760405162461bcd60e51b815260206004820181905260248201527f557365725661756c743a204e6f20746f6b656e7320746f207769746864726177604482015260640161047d565b6001600160a01b0382165f9081526002602052604081208054839290610d07908490611176565b90915550505f54610d20906001600160a01b0316610be3565b5f546040805183815242602082015281516001600160a01b03938416938616927fa1b8b675e45a4aa34f25af53b8f232c9ef44017db83cc0df5a914dbe54ed46cb928290030190a350610ada60018055565b600260015403610d9557604051633ee5aeb560e01b815260040160405180910390fd5b6002600155565b6040516001600160a01b038481166024830152838116604483015260648201839052610e039186918216906323b872dd906084015b604051602081830303815290604052915060e01b6020820180516001600160e01b038381831617835250505050610eba565b50505050565b5f546001600160a01b031633146109cf5760405163118cdaa760e01b815233600482015260240161047d565b5f80546001600160a01b038381166001600160a01b0319831681178455604051919092169283917f8be0079c531659141344cd1fd0a4f28419497f9722a3daafe3b4186f6b6457e09190a35050565b6040516001600160a01b03838116602483015260448201839052610eb591859182169063a9059cbb90606401610dd1565b505050565b5f5f60205f8451602086015f885af180610ed9576040513d5f823e3d81fd5b50505f513d91508115610ef0578060011415610efd565b6001600160a01b0384163b155b15610e0357604051635274afe760e01b81526001600160a01b038516600482015260240161047d565b5f5f60208385031215610f37575f5ffd5b823567ffffffffffffffff811115610f4d575f5ffd5b8301601f81018513610f5d575f5ffd5b803567ffffffffffffffff811115610f73575f5ffd5b8560208260051b8401011115610f87575f5ffd5b6020919091019590945092505050565b602080825282518282018190525f918401906040840190835b81811015610fce578351835260209384019390920191600101610fb0565b509095945050505050565b80356001600160a01b0381168114610fef575f5ffd5b919050565b5f5f60408385031215611005575f5ffd5b61100e83610fd9565b946020939093013593505050565b5f6020828403121561102c575f5ffd5b61103582610fd9565b9392505050565b5f6020828403121561104c575f5ffd5b5035919050565b602080825282518282018190525f918401906040840190835b81811015610fce5783516001600160a01b031683526020938401939092019160010161106c565b634e487b7160e01b5f52604160045260245ffd5b634e487b7160e01b5f52603260045260245ffd5b6020808252818101527f557365725661756c743a20496e76616c696420746f6b656e2061646472657373604082015260600190565b60208082526028908201527f557365725661756c743a20416d6f756e74206d75737420626520677265617465604082015267072207468616e20360c41b606082015260800190565b5f60208284031215611148575f5ffd5b5051919050565b634e487b7160e01b5f52601160045260245ffd5b808201808211156104495761044961114f565b818103818111156104495761044961114f565b634e487b7160e01b5f52603160045260245ffdfea26469706673582212209f2478cc8c336ad76c8899ca90ac327baf96574d64cacd5af46fd6652220af4e64736f6c634300081c0033",
  "linkReferences": {},
  "deployedLinkReferences": {},
  "immutableReferences": {
    "907": [
      {
        "length": 32,
        "start": 637
      },
      {
        "length": 32,
        "start": 2541
      }
    ]
  },
  "inputSourceName": "project/contracts/UserVault.sol",
  "buildInfoId": "solc-0_8_28-2e4591bf63a860a6fbb597ce70b9553b7659c5ce"
}