{
  "_format": "hh3-artifact-1",
  "contractName": "UserVault",
  "sourceName": "contracts/UserVault.sol",
  "abi": [
    {
      "inputs": [
        {
          "internalType": "address",
          "name": "_owner",
          "type": "address"
        },
        {
          "internalType": "address",
          "name": "_factory",
          "type": "address"
        }
      ],
      "stateMutability": "nonpayable",
      "type": "constructor"
    },
    {
      "inputs": [
        {
          "internalType": "address",
          "name": "owner",
          "type": "address"
        }
      ],
      "name": "OwnableInvalidOwner",
      "type": "error"
    },
    {
      "inputs": [
        {
          "internalType": "address",
          "name": "account",
          "type": "address"
        }
      ],
      "name": "OwnableUnauthorizedAccount",
      "type": "error"
    },
    {
      "inputs": [],
      "name": "ReentrancyGuardReentrantCall",
      "type": "error"
    },
    {
      "inputs": [
        {
          "internalType": "address",
          "name": "token",
          "type": "address"
        }
      ],
      "name": "SafeERC20FailedOperation",
      "type": "error"
    },
    {
      "anonymous": false,
      "inputs": [
        {
          "indexed": true,
          "internalType": "address",
          "name": "token",
          "type": "address"
        },
        {
          "indexed": false,
          "internalType": "uint256",
          "name": "timestamp",
          "type": "uint256"
        }
      ],
      "name": "AutoSyncTriggered",
      "type": "event"
    },
    {
      "anonymous": false,
      "inputs": [
        {
          "indexed": true,
          "internalType": "address",
          "name": "token",
          "type": "address"
        },
        {
          "indexed": false,
          "internalType": "uint256",
          "name": "oldBalance",
          "type": "uint256"
        },
        {
          "indexed": false,
          "internalType": "uint256",
          "name": "newBalance",
          "type": "uint256"
        },
        {
          "indexed": false,
          "internalType": "uint256",
          "name": "timestamp",
          "type": "uint256"
        }
      ],
      "name": "BalanceSynced",
      "type": "event"
    },
    {
      "anonymous": false,
      "inputs": [
        {
          "indexed": true,
          "internalType": "address",
          "name": "previousOwner",
          "type": "address"
        },
        {
          "indexed": true,
          "internalType": "address",
          "name": "newOwner",
          "type": "address"
        }
      ],
      "name": "OwnershipTransferred",
      "type": "event"
    },
    {
      "anonymous": false,
      "inputs": [
        {
          "indexed": true,
          "internalType": "address",
          "name": "token",
          "type": "address"
        },
        {
          "indexed": false,
          "internalType": "uint256",
          "name": "timestamp",
          "type": "uint256"
        }
      ],
      "name": "TokenAdded",
      "type": "event"
    },
    {
      "anonymous": false,
      "inputs": [
        {
          "indexed": true,
          "internalType": "address",
          "name": "token",
          "type": "address"
        },
        {
          "indexed": false,
          "internalType": "uint256",
          "name": "timestamp",
          "type": "uint256"
        }
      ],
      "name": "TokenRemoved",
      "type": "event"
    },
    {
      "anonymous": false,
      "inputs": [
        {
          "indexed": true,
          "internalType": "address",
          "name": "token",
          "type": "address"
        },
        {
          "indexed": false,
          "internalType": "uint256",
          "name": "amount",
          "type": "uint256"
        },
        {
          "indexed": true,
          "internalType": "address",
          "name": "from",
          "type": "address"
        },
        {
          "indexed": false,
          "internalType": "uint256",
          "name": "timestamp",
          "type": "uint256"
        }
      ],
      "name": "TokensReceived",
      "type": "event"
    },
    {
      "anonymous": false,
      "inputs": [
        {
          "indexed": true,
          "internalType": "address",
          "name": "token",
          "type": "address"
        },
        {
          "indexed": false,
          "internalType": "uint256",
          "name": "amount",
          "type": "uint256"
        },
        {
          "indexed": true,
          "internalType": "address",
          "name": "to",
          "type": "address"
        },
        {
          "indexed": false,
          "internalType": "uint256",
          "name": "timestamp",
          "type": "uint256"
        }
      ],
      "name": "TokensWithdrawn",
      "type": "event"
    },
    {
      "inputs": [],
      "name": "AUTO_SYNC_THRESHOLD",
      "outputs": [
        {
          "internalType": "uint256",
          "name": "",
          "type": "uint256"
        }
      ],
      "stateMutability": "view",
      "type": "function"
    },
    {
      "inputs": [
        {
          "internalType": "address",
          "name": "token",
          "type": "address"
        },
        {
          "internalType": "uint256",
          "name": "amount",
          "type": "uint256"
        }
      ],
      "name": "deposit",
      "outputs": [],
      "stateMutability": "nonpayable",
      "type": "function"
    },
    {
      "inputs": [
        {
          "internalType": "address",
          "name": "token",
          "type": "address"
        },
        {
          "internalType": "uint256",
          "name": "amount",
          "type": "uint256"
        },
        {
          "internalType": "address",
          "name": "to",
          "type": "address"
        }
      ],
      "name": "emergencyRecover",
      "outputs": [],
      "stateMutability": "nonpayable",
      "type": "function"
    },
    {
      "inputs": [],
      "name": "factory",
      "outputs": [
        {
          "internalType": "address",
          "name": "",
          "type": "address"
        }
      ],
      "stateMutability": "view",
      "type": "function"
    },
    {
      "inputs": [],
      "name": "getAllSupportedTokens",
      "outputs": [
        {
          "internalType": "address[]",
          "name": "",
          "type": "address[]"
        }
      ],
      "stateMutability": "view",
      "type": "function"
    },
    {
      "inputs": [
        {
          "internalType": "address",
          "name": "token",
          "type": "address"
        }
      ],
      "name": "getBalance",
      "outputs": [
        {
          "internalType": "uint256",
          "name": "",
          "type": "uint256"
        }
      ],
      "stateMutability": "view",
      "type": "function"
    },
    {
      "inputs": [
        {
          "internalType": "address",
          "name": "token",
          "type": "address"
        }
      ],
      "name": "getLastSyncTimestamp",
      "outputs": [
        {
          "internalType": "uint256",
          "name": "",
          "type": "uint256"
        }
      ],
      "stateMutability": "view",
      "type": "function"
    },
    {
      "inputs": [],
      "name": "getSupportedTokenCount",
      "outputs": [
        {
          "internalType": "uint256",
          "name": "",
          "type": "uint256"
        }
      ],
      "stateMutability": "view",
      "type": "function"
    },
    {
      "inputs": [
        {
          "internalType": "address",
          "name": "token",
          "type": "address"
        }
      ],
      "name": "getTrackedBalance",
      "outputs": [
        {
          "internalType": "uint256",
          "name": "",
          "type": "uint256"
        }
      ],
      "stateMutability": "view",
      "type": "function"
    },
    {
      "inputs": [
        {
          "internalType": "address",
          "name": "",
          "type": "address"
        }
      ],
      "name": "isTokenSupported",
      "outputs": [
        {
          "internalType": "bool",
          "name": "",
          "type": "bool"
        }
      ],
      "stateMutability": "view",
      "type": "function"
    },
    {
      "inputs": [
        {
          "internalType": "address",
          "name": "",
          "type": "address"
        }
      ],
      "name": "lastSyncTimestamp",
      "outputs": [
        {
          "internalType": "uint256",
          "name": "",
          "type": "uint256"
        }
      ],
      "stateMutability": "view",
      "type": "function"
    },
    {
      "inputs": [
        {
          "internalType": "address",
          "name": "token",
          "type": "address"
        }
      ],
      "name": "needsSync",
      "outputs": [
        {
          "internalType": "bool",
          "name": "",
          "type": "bool"
        }
      ],
      "stateMutability": "view",
      "type": "function"
    },
    {
      "inputs": [],
      "name": "owner",
      "outputs": [
        {
          "internalType": "address",
          "name": "",
          "type": "address"
        }
      ],
      "stateMutability": "view",
      "type": "function"
    },
    {
      "inputs": [
        {
          "internalType": "address",
          "name": "token",
          "type": "address"
        }
      ],
      "name": "removeToken",
      "outputs": [],
      "stateMutability": "nonpayable",
      "type": "function"
    },
    {
      "inputs": [],
      "name": "renounceOwnership",
      "outputs": [],
      "stateMutability": "nonpayable",
      "type": "function"
    },
    {
      "inputs": [
        {
          "internalType": "uint256",
          "name": "",
          "type": "uint256"
        }
      ],
      "name": "supportedTokens",
      "outputs": [
        {
          "internalType": "address",
          "name": "",
          "type": "address"
        }
      ],
      "stateMutability": "view",
      "type": "function"
    },
    {
      "inputs": [],
      "name": "syncAllTokens",
      "outputs": [],
      "stateMutability": "nonpayable",
      "type": "function"
    },
    {
      "inputs": [
        {
          "internalType": "address",
          "name": "token",
          "type": "address"
        }
      ],
      "name": "syncTokenBalance",
      "outputs": [],
      "stateMutability": "nonpayable",
      "type": "function"
    },
    {
      "inputs": [
        {
          "internalType": "address",
          "name": "",
          "type": "address"
        }
      ],
      "name": "tokenBalances",
      "outputs": [
        {
          "internalType": "uint256",
          "name": "",
          "type": "uint256"
        }
      ],
      "stateMutability": "view",
      "type": "function"
    },
    {
      "inputs": [
        {
          "internalType": "address",
          "name": "newOwner",
          "type": "address"
        }
      ],
      "name": "transferOwnership",
      "outputs": [],
      "stateMutability": "nonpayable",
      "type": "function"
    },
    {
      "inputs": [
        {
          "internalType": "uint256",
          "name": "newThreshold",
          "type": "uint256"
        }
      ],
      "name": "updateAutoSyncThreshold",
      "outputs": [],
      "stateMutability": "nonpayable",
      "type": "function"
    },
    {
      "inputs": [
        {
          "internalType": "address",
          "name": "token",
          "type": "address"
        },
        {
          "internalType": "uint256",
          "name": "amount",
          "type": "uint256"
        },
        {
          "internalType": "address",
          "name": "to",
          "type": "address"
        }
      ],
      "name": "withdrawTo",
      "outputs": [],
      "stateMutability": "nonpayable",
      "type": "function"
    }
  ],
  "bytecode": "0x60a060405234801561000f575f5ffd5b506040516111a83803806111a883398101604081905261002e916100e6565b816001600160a01b03811661005c57604051631e4fbdf760e01b81525f600482015260240160405180910390fd5b6100658161007c565b50600180556001600160a01b031660805250610117565b5f80546001600160a01b038381166001600160a01b0319831681178455604051919092169283917f8be0079c531659141344cd1fd0a4f28419497f9722a3daafe3b4186f6b6457e09190a35050565b80516001600160a01b03811681146100e1575f5ffd5b919050565b5f5f604083850312156100f7575f5ffd5b610100836100cb565b915061010e602084016100cb565b90509250929050565b60805161107961012f5f395f6102a801526110795ff3fe608060405234801561000f575f5ffd5b506004361061013d575f3560e01c806375151b63116100b4578063c625562611610079578063c6255626146102dd578063ce67be26146102f0578063e6cb85a7146102f8578063eb40133f14610320578063f2fde38b14610333578063f8b2cb4f14610346575f5ffd5b806375151b63146102545780638c4e2c61146102765780638da5cb5b1461027f578063c45a0155146102a3578063c4e2c1e6146102ca575f5ffd5b8063494d565b11610105578063494d565b146101a2578063523fba7f146101cf57806354eb3591146101ee57806356fa1fa9146102165780635fa7b58414610239578063715018a61461024c575f5ffd5b80630107e472146101415780630867d7f11461015f578063086f93a81461016957806311f8e88e1461017c57806347e7ef241461018f575b5f5ffd5b610149610359565b6040516101569190610e0b565b60405180910390f35b6101676103b9565b005b610167610177366004610e71565b61040a565b61016761018a366004610eaa565b610489565b61016761019d366004610ec1565b6104e0565b6101c16101b0366004610ee9565b60056020525f908152604090205481565b604051908152602001610156565b6101c16101dd366004610ee9565b60026020525f908152604090205481565b6101c16101fc366004610ee9565b6001600160a01b03165f9081526005602052604090205490565b610229610224366004610ee9565b610693565b6040519015158152602001610156565b610167610247366004610ee9565b6106a3565b610167610876565b610229610262366004610ee9565b60046020525f908152604090205460ff1681565b6101c161012c81565b5f546001600160a01b03165b6040516001600160a01b039091168152602001610156565b61028b7f000000000000000000000000000000000000000000000000000000000000000081565b6101676102d8366004610e71565b610889565b61028b6102eb366004610eaa565b610a1b565b6003546101c1565b6101c1610306366004610ee9565b6001600160a01b03165f9081526002602052604090205490565b61016761032e366004610ee9565b610a43565b610167610341366004610ee9565b610a4c565b6101c1610354366004610ee9565b610a86565b606060038054806020026020016040519081016040528092919081815260200182805480156103af57602002820191905f5260205f20905b81546001600160a01b03168152600190910190602001808311610391575b5050505050905090565b5f5b600354811015610407575f600382815481106103d9576103d9610f09565b5f918252602090912001546001600160a01b0316905080156103fe576103fe81610a90565b506001016103bb565b50565b610412610b47565b6001600160a01b0383166104415760405162461bcd60e51b815260040161043890610f1d565b60405180910390fd5b6001600160a01b0381166104675760405162461bcd60e51b815260040161043890610f52565b61047b6001600160a01b0384168284610b73565b61048483610bd2565b505050565b610491610b47565b5f81116104075760405162461bcd60e51b815260206004820152601c60248201527f557365725661756c743a20496e76616c6964207468726573686f6c64000000006044820152606401610438565b6104e8610c2c565b6001600160a01b03821661050e5760405162461bcd60e51b815260040161043890610f1d565b5f811161052d5760405162461bcd60e51b815260040161043890610f96565b61053682610bd2565b61054b6001600160a01b038316333084610c56565b6001600160a01b0382165f9081526002602052604081208054839290610572908490610ff2565b90915550506001600160a01b0382165f9081526004602052604090205460ff1661062f576003805460018082019092557fc2575a0e9e593c00f959f8c92f12db2869c3395a3b0502d05e2516446f71f85b0180546001600160a01b0319166001600160a01b0385169081179091555f81815260046020908152604091829020805460ff19169094179093555142815290917ff4c563a3ea86ff1f4275e8c207df0375a51963f2b831b7bf4da8be938d92876c910160405180910390a25b6001600160a01b0382165f8181526005602090815260409182902042908190558251858152918201523392917f09c19ec084a7a17a7a092a89fb51a7662c32b435253ca1ce77010a4068336215910160405180910390a361068f60018055565b5050565b5f61069d82610c95565b92915050565b6106ab610b47565b6001600160a01b0381165f9081526004602052604090205460ff166107125760405162461bcd60e51b815260206004820152601e60248201527f557365725661756c743a20546f6b656e206e6f7420737570706f7274656400006044820152606401610438565b61071b81610bd2565b6001600160a01b0381165f908152600460205260408120805460ff191690555b60035481101561082f57816001600160a01b03166003828154811061076257610762610f09565b5f918252602090912001546001600160a01b031603610827576003805461078b90600190611005565b8154811061079b5761079b610f09565b5f91825260209091200154600380546001600160a01b0390921691839081106107c6576107c6610f09565b905f5260205f20015f6101000a8154816001600160a01b0302191690836001600160a01b03160217905550600380548061080257610802611018565b5f8281526020902081015f1990810180546001600160a01b031916905501905561082f565b60010161073b565b50806001600160a01b03167fbe9bb4bdca0a094babd75e3a98b1d2e2390633430d0a2f6e2b9970e2ee03fb2e4260405161086b91815260200190565b60405180910390a250565b61087e610b47565b6108875f610ce8565b565b610891610b47565b610899610c2c565b6001600160a01b0383166108bf5760405162461bcd60e51b815260040161043890610f1d565b6001600160a01b0381166108e55760405162461bcd60e51b815260040161043890610f52565b5f82116109045760405162461bcd60e51b815260040161043890610f96565b61090d83610bd2565b5f61091784610d37565b9050828110156109775760405162461bcd60e51b815260206004820152602560248201527f557365725661756c743a20496e73756666696369656e74207661756c742062616044820152646c616e636560d81b6064820152608401610438565b6001600160a01b0384165f908152600260205260408120805485929061099e908490611005565b909155506109b890506001600160a01b0385168385610b73565b6001600160a01b038481165f818152600560209081526040918290204290819055825188815291820152928516927fa1b8b675e45a4aa34f25af53b8f232c9ef44017db83cc0df5a914dbe54ed46cb910160405180910390a35061048460018055565b60038181548110610a2a575f80fd5b5f918252602090912001546001600160a01b0316905081565b61040781610a90565b610a54610b47565b6001600160a01b038116610a7d57604051631e4fbdf760e01b81525f6004820152602401610438565b61040781610ce8565b5f61069d82610d37565b6001600160a01b038116610ab65760405162461bcd60e51b815260040161043890610f1d565b6001600160a01b0381165f9081526002602052604081205490610ad883610d37565b6001600160a01b0384165f81815260026020908152604080832085905560058252918290204290819055825187815291820185905281830152905192935090917f7259188e632112e4799f2fdc64c3499a12f095eafe79b38664c369dbd01ed6ea9181900360600190a2505050565b5f546001600160a01b031633146108875760405163118cdaa760e01b8152336004820152602401610438565b6040516001600160a01b0383811660248301526044820183905261048491859182169063a9059cbb906064015b604051602081830303815290604052915060e01b6020820180516001600160e01b038381831617835250505050610d9f565b610bdb81610c95565b1561040757806001600160a01b03167f0662239c833f58bdd39ca61c63bad2e6dd68cb448bfe1b34f1d54bbfc3c07b8042604051610c1b91815260200190565b60405180910390a261040781610a90565b600260015403610c4f57604051633ee5aeb560e01b815260040160405180910390fd5b6002600155565b6040516001600160a01b038481166024830152838116604483015260648201839052610c8f9186918216906323b872dd90608401610ba0565b50505050565b6001600160a01b0381165f908152600560205260408120548103610cbb57506001919050565b6001600160a01b0382165f9081526005602052604090205461012c90610ce19042611005565b1192915050565b5f80546001600160a01b038381166001600160a01b0319831681178455604051919092169283917f8be0079c531659141344cd1fd0a4f28419497f9722a3daafe3b4186f6b6457e09190a35050565b6040516370a0823160e01b81523060048201525f906001600160a01b038316906370a0823190602401602060405180830381865afa158015610d7b573d5f5f3e3d5ffd5b505050506040513d601f19601f8201168201806040525081019061069d919061102c565b5f5f60205f8451602086015f885af180610dbe576040513d5f823e3d81fd5b50505f513d91508115610dd5578060011415610de2565b6001600160a01b0384163b155b15610c8f57604051635274afe760e01b81526001600160a01b0385166004820152602401610438565b602080825282518282018190525f918401906040840190835b81811015610e4b5783516001600160a01b0316835260209384019390920191600101610e24565b509095945050505050565b80356001600160a01b0381168114610e6c575f5ffd5b919050565b5f5f5f60608486031215610e83575f5ffd5b610e8c84610e56565b925060208401359150610ea160408501610e56565b90509250925092565b5f60208284031215610eba575f5ffd5b5035919050565b5f5f60408385031215610ed2575f5ffd5b610edb83610e56565b946020939093013593505050565b5f60208284031215610ef9575f5ffd5b610f0282610e56565b9392505050565b634e487b7160e01b5f52603260045260245ffd5b6020808252818101527f557365725661756c743a20496e76616c696420746f6b656e2061646472657373604082015260600190565b60208082526024908201527f557365725661756c743a20496e76616c696420726563697069656e74206164646040820152637265737360e01b606082015260800190565b60208082526028908201527f557365725661756c743a20416d6f756e74206d75737420626520677265617465604082015267072207468616e20360c41b606082015260800190565b634e487b7160e01b5f52601160045260245ffd5b8082018082111561069d5761069d610fde565b8181038181111561069d5761069d610fde565b634e487b7160e01b5f52603160045260245ffd5b5f6020828403121561103c575f5ffd5b505191905056fea2646970667358221220ac8fd6ed5b3da914e74d9e504728723e3e401460f8d9e3a76deb423f2d0d3f8e64736f6c634300081c0033",
  "linkReferences": {},
  "deployedLinkReferences": {},
  "immutableReferences": {
    "907": [
      {
        "length": 32,
        "start": 680
      }
    ]
  },
  "inputSourceName": "project/contracts/UserVault.sol",
  "buildInfoId": "solc-0_8_28-5990647b909bc4e27914124b8ce28a0e23b781b0"
}